:0600000002004B0212DBBE
:03000B000218B91F
:0300130002132EA7
:01001B0032B2
:0300230002128F37
:01002B0032A2
:01003300329A
:03003B000213812C
:0300430002125056
:030046000213D5CD
:02004900E4735E
:0D004B007581621213E0E582600302004639
:1000580079DBE94400601B7A01901E8C780A75A050
:1000680002E493F2A308B8000205A0D9F4DAF27505
:02007800A0FFE7
:06007A00E478FFF6D8FD5A
:100080007800E84400600A799475A000E4F309D888
:10009000FC7876E84401600C7902900094E4F0A3C7
:0400A000D8FCD9FAB5
:1000A4007522D5752313752400752500752794755D
:0B00B4002800E4F53CF53DF53EF53F6B
:0900BF0075141A75150075160080
:0E00C8007808E4F608F608F608F6780C7600DC
:0200D600C20066
:0300D800020046DD
:1000DB0012074F9001AD7401F07582201213E4905A
:1000EB0001AD7401F07582101213E49001AD74012F
:1000FB00F075820E1213E49001AEE4F075820E12CD
:10010B0014FB7F00BF5500504F8F177518009000E0
:10011B0003C007121A8EAD82AE83ED2494FDEE342C
:10012B0000FE8D828E83E4F08D828E83A37464F047
:10013B008D828E83A3A3E4F07D947E007B007CFFF5
:10014B008D828E838CF0EB121B9C900005E4F5F0F6
:10015B00121976D0070F80AC7F00BF5500504E8F21
:10016B0017751800900003C007121A8EAD82AE836C
:10017B00ED2494FDEE3400FE8D828E837464F08D3D
:10018B00828E83A3E4F08D828E83A3A3F07D947E75
:10019B00007B007CFF8D828E838CF0EB121B9C907E
:1001AB000005E4F5F0121976D0070F80AD7F00BF84
:1001BB005500504E8F17751800900003C007121A88
:1001CB008EAD82AE83ED2494FDEE3400FE8D828ED7
:1001DB0083E4F08D828E83A3F08D828E83A3A37430
:1001EB0064F07D947E007B007CFF8D828E838CF08F
:1001FB00EB121B9C900005E4F5F0121976D0070F5B
:10020B0080AD7F00BF5500504C8F177518009000C4
:10021B0003C007121A8EAD82AE83ED2494FDEE342B
:10022B0000FE8D828E83E4F08D828E83A3F08D820F
:10023B008E83A3A3F07D947E007B007CFF8D828E4A
:10024B00838CF0EB121B9C900005E4F5F0121976F1
:10025B00D0070F80AF121939AC82AD83AEF0FF8C93
:10026B00388D398E3A8F3B8C348D358E368F379057
:10027B0001B374E2F0741DA3F07480A3F0900854E2
:10028B001215CD120835900064E4F5F01219769032
:10029B0001B374E7F0741DA3F07480A3F0900854BD
:1002AB001215CD02083512193985823085833185B7
:1002BB00F032F53312099BE58260311209A2858277
:1002CB002FAC30AD31AE32AF338C388D398E3A8F97
:1002DB003B8C348D358E368F37E4B5240280077412
:1002EB0001B5240B80030202FB02058302060C22DC
:1002FB0074FD25405003020442E540901DC393B5A5
:10030B002F0B7402B54003752500054022E5409084
:10031B001DC993B52F0B7402B5400375250105401C
:10032B0022E540901DC693FFB52F02800302043EC9
:10033B007402B54002800302043B75820F1208540D
:10034B0075820C12085475825D1208547582061260
:10035B000854903FFCE493F582120854903FFDE45F
:10036B0093F582120854903FFEE493F582120854E1
:10037B00903FFFE493F582120854903FFAE493F513
:10038B0082120854903FFBE493F582120854758255
:10039B000C1208547E007F00C3EE940CEF64809423
:1003AB00805020EE24CCF582EF341DF583E493F5D9
:1003BB0082C007C006120854D006D0070EBE00D864
:1003CB000F80D57582051208547E007F00C3EE9412
:1003DB0005EF648094805020EE24D8F582EF341D15
:1003EB00F583E493F582C007C006120854D006D0FB
:1003FB00070EBE00D80F80D57582051208547E00FB
:10040B007F00C3EE9405EF648094805020EE24DDD2
:10041B00F582EF341DF583E493F582C007C0061215
:10042B000854D006D0070EBE00D80F80D5754000FB
:10043B0005402275400022E54024F7500122E5409B
:10044B00240B83F582E540240D83F583E4738282CC
:10045B00826B71777D83860505050404040404040F
:10046B00852F41054022852F42054022852F4305CC
:10047B004022852F44054022054022E4B525028009
:10048B00087401B52502807A22E5426541FF7E00A2
:10049B00630755AC437D00ECB50763EDB5065F9084
:1004AB0001AE7401F075820E1214FBAC417D007E1F
:1004BB00008E078D068C057C00A842E4F9FAFBE858
:1004CB002CF517E93DF518EA3EF519EB3FF51A90B7
:1004DB000003E4F5F0121AAB85822B85832C85F093
:1004EB002DF52EE4F529F52AF5177518FFF519905A
:1004FB00009475F00012189A8544267524017540F6
:10050B000022E5426541FF7E00630755AC437D0049
:10051B00ECB50760EDB5065C9001AE7401F0758229
:10052B000E1214FBAC417D007E008E078D068C05F0
:10053B007C00A842E4F9FAFBE82CF517E93DF51825
:10054B00EA3EF519EB3FF51A900003E4F5F0121AA9
:10055B00AB85822B85832C85F02DF52EE4F529F5C3
:10056B002AF5177518FFF51990009475F0001218FD
:10057B009A75240175400022AE29AF2AC3EE94026E
:10058B00EF94015017E5292527F582E52A3528F543
:10059B0083E52FF00529E4B52902052A152B74FFF5
:1005AB00B52B0C152CB52C07152DB52D02152EE5DD
:1005BB002B452C452D452E7047F524B526347E94BE
:1005CB007F00AC29AD2A0CBC00010D7D008D028C87
:1005DB00037C007D008E008F01E4FEFFE84204E9FE
:1005EB004205EE4203EF42028C828D838BF0EA12BE
:1005FB001B9C9001AEE4F075820E1214FB020835C1
:10060B0022E530C39538FCE5319539FDE532953A55
:10061B00FEE533953BFFC3EC94E8ED9403EE9400B9
:10062B00EF9400500122E4B5250280077401B52533
:10063B005A802D120835E53E453F7013753E01F586
:10064B003F9001AE7401F075820E1214FB803CE4F6
:10065B00F53EF53F9001AEF075820E1214FB802B28
:10066B00120835E53E453F7013753E01F53F90018D
:10067B00AE7401F075820E1214FB800FE4F53EF59B
:10068B003F9001AEF075820E1214FB853038853128
:10069B003985323A85333BE53C453D700122E530E7
:1006AB00C39534FCE5319535FDE5329536FEE533E2
:1006BB009537FF853C17853D18751900751A009005
:1006CB0003E8E4F5F0C007C006C005C004121AAB7E
:1006DB00A882A983AAF0FBD004D005D006D007C30B
:1006EB00EC98ED99EE9AEF9B40597F00BF55005067
:1006FB00318F17751800900003C007121A8EAD8248
:10070B00AE83D007ED2494FDEE3400FE8D828E83F4
:10071B00E4F08D828E83A3F08D828E83A3A3F00FE2
:10072B0080CA7E947F007C007DFF8E828F838DF04C
:10073B00EC121B9C7524008530348531358532369F
:04074B008533372299
:10074F001211FE12122812121775DD0075D30075E3
:10075F00D50022900211E4F0900213F0227F007472
:10076F00F925DB50067D077E008004ADDB7E008F10
:10077F00037C00C3EB9DEC64808EF063F08095F0FA
:10078F005017EF240AFDE43402FE8F82758300E0D8
:10079F00FC8D828E83F00F80C6227F008F057E0036
:1007AF00C3ED9407EE940050188F057E00EF240AD6
:1007BF00F582E43402F583E0FC8D828E83F00F80A6
:1007CF00DB90000722900002E0FF900214F0E0207F
:1007DF00E04690020AE0FCA3E0FDA3E0FEA3E0FFE9
:1007EF00BCB035BD0432BE002FBF002C75E200C275
:1007FF00AF75100075113890C350121A2790C3505F
:10080F00121A27AE10AF11C007C0068E828F831247
:10081F000049D006D00780FE227F00900214E060CE
:10082F00027F018F8222900213E07018900215E070
:10083F00FFE060108FD553D4FC9002137401F09039
:10084F000215E4F022AF82900214E060617D007E19
:10085F0000900213E060240DBD00010E900005C052
:10086F0007C006C005121A27D005D006D007C3ED62
:10087F009450EE94C340DA75820022900215E0FE88
:10088F00BE400050207D0074402EFEE43DFDEE245E
:10089F0014F582ED3400F583EFF0900215E024019A
:1008AF00F075820122C007120835D007809F75822C
:1008BF000022AFF0AE83E582900195F0EEA3F0EF4A
:1008CF00A3F0900214E07003020997900193E0FEE9
:1008DF00A3E0FFC3E49E74808FF063F08095F04037
:1008EF00030209977E007F00900213E060200EBE86
:1008FF0000010F900005C007C006121A27D006D0BE
:10090F0007C3EE9450EF94C340DE7582002290012E
:10091F0095E0FDA3E0FEA3E0FF900193E0FBA3E0D1
:10092F00FCC3E49B74808CF063F08095F0509C9036
:10093F000215E0FABA400050498A017A0074402942
:10094F00F9E43AFAE92414F9EA3400FA8D828E8335
:10095F008FF0121CAAF8A3AD82AE83900195EDF033
:10096F00EEA3F0EFA3F089828A83E8F0900215E0FE
:10097F002401F01BBBFF011C900193EBF0ECA3F0E3
:10098F00809F1208350208DA75820022900211E06A
:10099F00F58222900211E07003F58222900212E09C
:1009AF002414F582E43400F583E0FF900212E00492
:1009BF00F0900211E014F0E0700353D4F38F822211
:1009CF00900211E07003F58222900212E02414F5D8
:1009DF0082E43400F583E0FF900212E004F090020D
:1009EF0011E014F0E0700353D4F38F822275D50019
:1009FF0074FC55D44402F5D4900213E4F02230DE97
:100A0F0019900211E5DBF0900212E4F0900211E070
:0B0A1F00600874F355D44408F5D4229D
:100A2A00AFDBBF0802800302104A900007E0FE7F96
:100A3A0000900006E0FD7C00900198ED4FF0EC4E2E
:100A4A00A3F07F00900001E0FE90019AF08F1690CB
:100A5A000000E05460604D900000E0FD5305607CAA
:100A6A0000BD2005BC0002800BBD4033BC00307FB6
:100A7A00FF02104CBE200302104CBE21028005BEAC
:100A8A002218800C1207A9AC82AD838C0702104C85
:100A9A00C0071207D4D00702104C7FFF02104C7F08
:100AAA00FF02104CEEFD24F45003021046ED240A16
:100ABA0083F582ED241083F583E473204F460E46B6
:100ACA0013DD4622434C4C100E100F100E0A100E66
:100ADA000E1010900003E0FEBE0102800DBE02025D
:100AEA00801BBE03028029020D8875121675130237
:100AFA00900228E0FDA3E0FE8D07020D8A75122AF6
:100B0A00751302900275E0FDA3E0FE8D07020D8ABF
:100B1A00900002E0701375127775130290027BE061
:100B2A00FDA3E0FE8D07020D8A900002E0FEBE01E1
:100B3A00137512B17513029002BFE0FDA3E0FE8D9A
:100B4A0007020D8A900002E0FEBE021375127D753F
:100B5A001302900297E0FDA3E0FE8D07020D8A9032
:100B6A000002E0FEBE03028003020D6490019C7441
:100B7A0030F090019D04F090019E04F090019F04D2
:100B8A00F09001A004F09001A104F09001A204F0F9
:100B9A009001A304F09001A404F09001A504F09040
:100BAA0001A67441F09001A704F09001A804F09006
:100BBA0001A904F09001AA04F09001AB04F090019D
:100BCA00ACE4F09002C1741AF09002C27403F0907F
:100BDA003FFCE493C4540FFE53060F7D00EE249CA1
:100BEA00F582ED3401F583E09002C3F09002C4E48B
:100BFA00F0903FFC93FE53060F7D00EE249CF58295
:100C0A00ED3401F583E09002C5F09002C6E4F0905D
:100C1A003FFD93C4540FFE53060F7D00EE249CF54E
:100C2A0082ED3401F583E09002C7F09002C8E4F047
:100C3A00903FFD93FE53060F7D00EE249CF582ED56
:100C4A003401F583E09002C9F09002CAE4F0903FC3
:100C5A00FE93C4540FFE53060F7D00EE249CF582CA
:100C6A00ED3401F583E09002CBF09002CCE4F090F1
:100C7A003FFE93FE53060F7D00EE249CF582ED3471
:100C8A0001F583E09002CDF09002CEE4F0903FFFB0
:100C9A0093C4540FFE53060F7D00EE249CF582ED9B
:100CAA003401F583E09002CFF09002D0E4F0903F57
:100CBA00FF93FE53060F7D00EE249CF582ED34016E
:100CCA00F583E09002D1F09002D2E4F0903FFA93DB
:100CDA00C4540FFE53060F7D00EE249CF582ED34BA
:100CEA0001F583E09002D3F09002D4E4F0903FFA49
:100CFA0093FE53060F7D00EE249CF582ED3401F538
:100D0A0083E09002D5F09002D6E4F0903FFB93C4C2
:100D1A00540FFE53060F7D00EE249CF582ED34013C
:100D2A00F583E09002D7F09002D8E4F0903FFB936D
:100D3A00FE53060F7D00EE249CF582ED3401F58307
:100D4A00E0FE9002D9F09002DAE4F075141AF51573
:100D5A007512C17513027F1A8026900002E0FEBE4A
:100D6A0004127512997513029002AFE0FDA3E0FE1A
:100D7A008D07800C7512C1751302AF1480027FFFB4
:100D8A00BFFF0302104C900198E0FDA3E0FE8F0321
:100D9A007C00C3EB9DEC9E5008900198EBF0ECA30D
:100DAA00F0900198E0FDA3E0FE8D038E04C3EB945E
:100DBA0008EC940040067B087C0080048D038E04B6
:100DCA008B077E00C3EE9F50188E047D00EE25121D
:100DDA00F582E43513F583E0FB8C828D83F00E8077
:100DEA00E38F057E00900198E0FBA3E0FCEBC39D36
:100DFA00FBEC9EFC900198EBF0ECA3F0EF2512F5CA
:100E0A0012E43513F51302104C900002E0FE900133
:100E1A0098F0E4A3F002104C90019BE0900000F0DF
:100E2A00900198E0FDA3E0FEC3ED9401EE9400501A
:100E3A000302104C7F0102104C900002E0FE900168
:100E4A009BF002104C900000E0541F702E9000039B
:100E5A00E0FD7E00900002E0FC7B004206EB4205CA
:100E6A00BE0113BD0010900231E0FE30E50302100E
:100E7A004C7FFF02104C7FFF02104C900000E0FEF6
:100E8A0053061F7D00BE0277BD0074900004E0FE89
:100E9A00BE0102805FBE02028049BE03028033BEE9
:100EAA000402801DBE81028040BE8202802ABE8367
:100EBA00028014BE844474BC55DE4402F5DE02107E
:100ECA004C53DE7302104C74BC55D64402F5D6025C
:100EDA00104C53D67302104C74BC55D44402F5D44A
:100EEA0002104C53D47302104C74BC55D24402F510
:100EFA00D202104C53D27302104C7FFF02104C7F67
:100F0A00FF02104C900000E0541F702E900003E086
:100F1A00FD7E00900002E0FC7B004206EB4205BE2B
:100F2A000113BD0010900231E0FE30E50302104CBF
:100F3A007FFF02104C7FFF02104C900000E0FE532E
:100F4A00061F7D00BE0205BD0002800302101C9030
:100F5A000003E0FD7E00900002E0FC7B004206EB0D
:100F6A004205EE4D6003021018900005E0FD7E0078
:100F7A00900004E0FC7B004206EB4205BE0106BD80
:100F8A00000302100CBE0205BD00028061BE03050B
:100F9A00BD00028045BE0405BD00028029BE810550
:100FAA00BD00028053BE8205BD00028037BE8305A4
:100FBA00BD0002801BBE8452BD004F74BF55DE4483
:100FCA0003F5DE02104C747F55DE440CF5DE8072A8
:100FDA0074BF55D64403F5D68068747F55D6440C41
:100FEA00F5D6805E74BF55D44403F5D48054747F1B
:100FFA0055D4440CF5D4804A74BF55D24403F5D273
:10100A008040747F55D2440CF5D27FFF80347FFF35
:10101A0080307FFF802C900000E4F0900001F09077
:10102A000198E0FDA3E0FE8D038E04C3EB9402EC6D
:10103A00940040047F02800A8D0780067FFF8002A9
:10104A007FFFBFFF0A90019A74FFF075DCCF22EF91
:10105A0024F740068FDD75DCC02275DD0075DCC023
:10106A002290019AE0FFBF05030210EBBF0602803F
:10107A00030210FF900198E0FEA3E0FF8E048F05A3
:10108A00C3EC9408ED940040067C087D0080048E31
:10109A00048F057F00C3EF9C50188F057E00EF2553
:1010AA0012F582E43513F583E0FB8D828E83F00F0F
:1010BA0080E38C067F00900198E0FBA3E0FDEBC380
:1010CA009EFBED9FFD900198EBF0EDA3F0EC25124D
:1010DA00F512E43513F5138CDDAEDC6306408EDCC5
:1010EA0022E5E35480FF900198E0FDA3E0ED4FF57F
:1010FA00E375DC022275DD0075DC022290019AE0BC
:10110A00FFBF200D30DE1012076C75DD0085DCDCB8
:10111A002275DD0043DC022275D30074FC55D244EB
:10112A0002F5D22220D9030211D9E5D9540FFFAD15
:10113A00D95305307E00BD0005BE0002801CBD10DB
:10114A0005BE00028036BD2005BE00028043BD30C8
:10115A0006BE00030211BF0211D7EF24FB5003029F
:10116A0011D7EF2F90117273800880618009805D1A
:10117A00805B1211068056120A0D8051EF24FB4043
:10118A004CEF2F90119173804480428040803E80C2
:10119A003CEF24FB4037EF2F9011A6738008800B99
:1011AA00800E8029802712106B8022121122801D46
:1011BA001209FC8018EF24FB4013EF2F9011CA7319
:1011CA0080088009800780058003120A2AC2D93064
:1011DA00D81575DC0275D21275D41275E300C2DA1D
:1011EA00C2D9C2D812076210DA0122E5DA20E20374
:1011FA0075D8FF2275E20053E27F43E22975E300C6
:10120A0053E2BF53D1FB75D18043D1012243E1049C
:10121A0043E10243E10143D81FD2EAD2AF227E0A58
:10122A007F008EEE8FEF7E147F008EE48FE575EBE4
:10123A000C75D21275D4127E007F008EEC8FED757C
:06124A00EA4075DC0222FF
:10125000C021C0E0C0F0C082C083C007C006C00586
:10126000C004C003C002C001C000C0D075D00012CD
:10127000112ED0D0D000D001D002D003D004D005A0
:10128000D006D007D083D082D0F0D0E0D02132C0B9
:1012900021C0E0C0F0C082C083C007C006C005C046
:1012A00004C003C002C001C000C0D075D000309897
:1012B00005121CC6C298309905121CFCC299D0D0E8
:1012C000D000D001D002D003D004D005D006D00782
:1012D000D083D082D0F0D0E0D02132C021C0E0C095
:1012E000F0C082C083C007C006C005C004C003C0F0
:1012F00002C001C000C0D075D0009002DDE0FEA3A6
:10130000E0FFC007C0068E828F83120049D006D04E
:1013100007D0D0D000D001D002D003D004D005D067
:1013200006D007D083D082D0F0D0E0D02132C021C7
:10133000C0E0C0F0C082C083C007C006C005C004C2
:10134000C003C002C001C000C0D075D0009002DF51
:10135000E0FEA3E0FFC007C0068E828F8312004923
:10136000D006D007D0D0D000D001D002D003D00416
:10137000D005D006D007D083D082D0F0D0E0D021E5
:1013800032C021C0E0C0F0C082C083C007C006C028
:1013900005C004C003C002C001C000C0D075D000A9
:1013A0009002DBE0FEA3E04E600E9002DBE0F8A3CB
:1013B000E0F5838882120049D0D0D000D001D0025D
:1013C000D003D004D005D006D007D083D082D0F08F
:1013D000D0E0D02132121A3F1200DB1202B180FBA2
:0413E00075820022F0
:1013E400E582FF901E3C93FEEF901E1493FF700164
:1013F400229001ADE0FD701BBF0209EEF4FC529295
:10140400EC529322BF0402800122EEF4FC5296ECCB
:10141400529722BD0214BF0207EE4292EE4293227B
:10142400BF0439EE4296EE429722BD0116BF020870
:10143400EEF45292EE429322BF0421EEF45296EE61
:10144400429722BD0316BF0208EE4292EEF4529375
:1014540022BF0408EE4296EEF4FE529722AF82BFFA
:101464000102800FBF02028013BF03028017BF0472
:10147400358023E5C620E22E539DFB22E5C620E3FA
:1014840025539DF722AEC65306047F00BE0117BF45
:101494000014539DFB22AEC65306087F00BE01060E
:1014A400BF0003539DF722E582FF901DEC93FEEFEE
:1014B400901E3C93FDEF901E1493FF7003F582225F
:1014C400EE600D8E82C007C005121461D005D007EE
:1014D4007E00BF0202800ABF03028009BF040C80A1
:1014E40008AE908006AEA08002AEB0ED5E600475DA
:1014F40082012275820022E582FF901DEC93FEEFAB
:10150400901E3C93FDEF901E1493FFEE600D8E82AF
:10151400C007C005121461D005D007A2AFE433FEA2
:10152400C2AFBF0202800ABF03028017BF04368025
:10153400249001AEE07007EDF4FF52908027ED4255
:101544009080229001AEE07007EDF4FF52A0801568
:10155400ED42A080109001AEE07007EDF4FF52B0B0
:0B1564008003ED42B0EE6002D2AF2227
:10156F00AE82AF839001AFE0FBA3E0FCA3E0FD7A76
:10157F00009001B2E0F9890019E8603F8B828C83FB
:10158F008DF0121CAAF8A3AB82AC83C007C006C0B3
:10159F0005C004C003C002C0011215AD8007C0060C
:1015AF00C007888222A882D001D002D003D004D0F5
:1015BF0005D006D007E860030A80BB8A8222AE827C
:1015CF00AF839001B3E0FBA3E0FCA3E0FD9001B378
:1015DF00E0F5F0A3E045F07003F582227A008B82EC
:1015EF008C838DF0121CAAF9A3AB82AC83E9F8604F
:1015FF002CC007C006C005C004C003C002121611DC
:10160F008007C006C007888222A982D002D003D0EB
:10161F0004D005D006D007E960030A80C18A822270
:10162F00AE82AF839001B6E0FAA3E0FBA3E0FCA388
:10163F00E0FD9001BEEAF0EBA3F0ECA3F0EDA3F018
:10164F009001C2740AF08E828F830216C0AE82AFF1
:10165F00839001BAE0FAA3E0FBA3E0FCA3E0FD90C6
:10166F0001E4EAF0EBA3F0ECA3F0EDA3F09001E8B6
:10167F00740AF08E828F830217A5AE82AF83C007E4
:10168F00C0061216968008C006C00775820D22ADDF
:10169F0082D006D007C007C0051216AD8008C0065D
:1016AF00C00775820A22AE82D005D007EE2DF582D3
:1016BF00228582458583469001E3E4F09001C2E0E4
:1016CF00FDBD020050069001C2740AF09001C2E005
:1016DF00F5477BE37C019001BEE0F548A3E0F549B7
:1016EF00A3E0F54AA3E0F54B85474C754D00754EC9
:1016FF0000754F00854C17854D18854E19854F1A6B
:10170F00854882854983854AF0E54BC004C00312A2
:10171F001B19A882854C17854D18854E19854F1AB0
:10172F00854882854983854AF0E54BC000121BD658
:10173F00AA82AD83AEF0FFD000D003D0049001BEDB
:10174F00EAF0EDA3F0EEA3F0EFA3F01BBBFF011C3B
:10175F008B068C07B80A005008880574302DFD8061
:10176F0004743728FD8E828F83EDF09001BEE0F573
:10177F00F0A3E042F0A3E042F0A3E045F0600302E3
:10178F0016E59001B3EBF0ECA3F0E4A3F0854582EE
:10179F008546830215CD8582508583519001E8E0FF
:1017AF00FD70199001E4E0F9A3E0FAA3E0FBA3E0D8
:1017BF00FC0217C3C050C05189822222BD0A028089
:1017CF00030218709001E4E0F9A3E0FAA3E0FBA391
:1017DF00E0FC30E76FC004C003C002C0011217F174
:1017EF008008C050C05175822D22A882D001D0022E
:1017FF00D003D00488529001E4C3E499F0E49AA393
:10180F00F0E49BA3F0E49CA3F09001E4E0F553A374
:10181F00E0F554A3E0F555A3E0F5569001BEE5536E
:10182F00F0E554A3F0E555A3F0E556A3F09001C2FF
:10183F00740AF08550828551831216C0AF82E5522B
:10184F002FF582229001BEE9F0EAA3F0EBA3F0ECB2
:10185F00A3F09001C2740AF085508285518302165D
:10186F00C09001E4E0FBA3E0FCA3E0FEA3E0FF9047
:10187F0001BEEBF0ECA3F0EEA3F0EFA3F09001C2EA
:10188F00EDF08550828551830216C0AC82AD83AED8
:10189F0018AF19BE0004EF600C1F0FE517121A7373
:0A18AF00A3DEFADFF88C828D83229D
:1018B900C0D075D00808B8000D09B900090ABA00E6
:1018C900050BBB00010CD0D032A2AFC2AFA808A94A
:1018D90009AA0AAB0BAC8A8588F092AF30F512746D
:1018E900012C600D08B8000909B900050ABA000100
:1018F9000BC3EC9406FCECC313FC75F07DE8A4F86B
:10190900ADF075F07DE9A42DF9E435F0FD75F07DB4
:10191900EAA42DFAE435F0FD75F07DEBA42DFB7DED
:1019290000EC28F582E93DF583EA3DF5F0EB3D222F
:10193900A2AFC2AFA808A909AA0AAB0BAC0C92AF17
:1019490075F020E8A4A8F075F020E9A428F582A88C
:10195900F075F020EAA428F583A8F075F020EBA42F
:1019690028F9A8F075F020ECA42889F0228582577F
:1019790085835885F059F55A1218D285825B85837B
:101989005C85F05DF55EE55745584559455A700146
:1019990022A857A958AA59AB5A855B5F855C60850F
:1019A9005D61855E62E8494A4B60DBC003C002C0E5
:1019B90001C0001218D2AC82AD83AEF0FFD000D0C6
:1019C90001D002D003ECC3955FFCED9560FDEE9567
:1019D90061FEEF9562FFC3EC94E8ED9403EE940089
:1019E900EF940040A118B8FF0919B9FF051ABAFF09
:1019F900011B885789588A598B5A74E8255FF55F06
:101A090074033560F560E43561F561E43562F562CA
:101A1900855F5B85605C85615D85625E8087AE827E
:101A2900AF83EE4F600F05A105A105A105A11EBE5B
:101A3900FF011F80ED2275A15575A1AA74F855B94A
:101A49004406F5B975A100901388121A27759E5D91
:101A5900759D0074F055894402F58953C9EF758C59
:101A690006C28DD2A9D28CD2AF2220F71130F6133B
:101A79008883A88220F509F6A8837583002280FE51
:101A8900F280F5F022E5828517F0A4C582C0F085C1
:101A990018F0A4D0F025F0C5838517F0A42583F5A7
:101AA9008322AAF0FBE5828517F0A4FCADF0E5835B
:101AB9008517F0A42DFDE435F0FEE5828518F0A424
:101AC9002DFDE5F03EFEE433FFEA8517F0A42EFE76
:101AD900E5F03FFFE5838518F0A42EFEE5F03FFF12
:101AE900E5828519F0A42EFEE5F03FFFEB8517F09E
:101AF900A42FFFEA8518F0A42FFFE5838519F0A428
:101B09002FFFE582851AF0A42F8EF08D838C822217
:101B1900F9E51745184519451A60777800C308E5AE
:101B29001A20E73BE51725E0F517E51833F518E521
:101B39001933F519E51A33F51AE5829517E58395F1
:101B490018E5F09519E9951A50D4C3E51A13F51A51
:101B5900E51913F519E51813F518E51713F517E540
:101B6900829517FCE5839518FDE5F09519FEE99531
:101B79001A4007F98EF08D838C82C3E51A13F51A82
:101B8900E51913F519E51813F518E51713F517D81D
:0C1B9900CEE922ABF0A2AFE433FEC2AFF5
:101BA600E0A3D2B23300500A00000000000000009B
:101BB6000000C2B2400A0000000000000000000061
:101BC600530207DADDDBD900C2B2EE6002D2AF22E1
:101BD600FB7A20E4FCFDFEFFE5822582F582E583A3
:101BE60033F583E5F033F5F0EB33FB4017DAE980A4
:101BF60042E5822582F582E58333F583E5F033F508
:101C0600F0EB33FBEC33FCED33FDEE33FEEF33FF4D
:101C1600EC9517ED9518EE9519EF951A4013EC957E
:101C260017FCED9518FDEE9519FEEF951AFF438208
:051C360001DABEEB2203
:101C3B0022AF82BF02005036EF75F002A424DDF50F
:101C4B0082740235F0F583E517F0E518A3F0BF00B9
:101C5B00028005BF0118800B9001E9E024FF9288F8
:101C6B00D2A8229001E9E0FF24FF928AD2AA22AFE8
:101C7B0082BF02005028BF00028005BF010880040C
:101C8B00C2A88002C2AAEF75F002A424DDFE740282
:0F1C9B0035F0FF8E828F83743BF0741CA3F02210
:101CAA0020F71430F6148883A88220F507E6A88363
:0C1CBA0075830022E280F7E49322E02210
:101CC6009002E1E0FF7E008F828E83A37517108E4F
:101CD60018121D8DAE829002E2E0FFEEB5070122DA
:101CE6009002E1E024EAF582E43401F583E599F017
:101CF6009002E1EEF0223000409002E3E0FF900215
:101D0600E4E0FEEFB50605A200C200229002E4E080
:101D160024FAF582E43401F583E0F5999002E4E0D3
:101D2600FF7E008F828E83A37517108E18121D8D6D
:0A1D3600AE82AF839002E4EEF022CB
:101D4000E517451860467A01E51725E0F517E5180F
:101D5000334012F518E5829517E583951840030A7C
:101D600080E6C3E51813F518E51713F517C3E582E8
:101D70009517F5F0E58395184005F58385F082C346
:101D8000E51813F518E51713F517DAE122C2D5E5C2
:101D90008330E70DD2D5E4C39582F582E49583F5CF
:101DA00083E51830E70BE4C39517F517E49518F5AC
:101DB00018121D4030D50BE4C39582F582E495835B
:031DC000F5832286
:101DC30061626E646972416461416D62696E6F2024
:101DD3004261736963312E302E3541425231614184
:091DE300626E0A004164610A000D
:101DEC0000000000000000000000000000000001E6
:101DFC0000000000000000000000000000000304D0
:101E0C0000000200000000000101010101010101BC
:101E1C00000002020202020202020000030303039A
:101E2C00030303030000040404040404040400007A
:101E3C000102040810204080000001020408102058
:101E4C0040800000010204081020408000000102C4
:101E5C000408102040800000FFFFFFFFFFFFFFFF82
:101E6C00FFFFFF00FFFF0102FFFFFFFFFFFFFFFF70
:101E7C00FFFFFFFFFFFFFFFF03FFFFFFFFFFFFFF62
:101E8C0000E1000000000800000000001201100139
:101E9C00EF020108091250C50101010203011200F1
:101EAC0009024B000201008064080B0002020201CF
:101EBC0004090400000102020104052400100105BC
:101ECC0024010000042402020524060001070581F8
:101EDC000308004009040100020A0000040705027F
:101EEC0002400000070582024000004B0004030979
:101EFC000404001A0341006D00620069006E006F5B
:101F0C00002000420061007300690063001A001693
:101F1C000343004400430020005300650072006935
:101F2C000061006C0016000E0341006D0062006938
:071F3C00006E006F000E00B3
:101F43000C0330003100320033003400350036001A
:0A1F53003700380039004100420059
:021F5D00000082
:041F5F003B1C3B1CD0
:041F6300000000007A
:00000001FF
