:0600000002004B02140691
:03000B000219E4F3
:030013000214597B
:01001B0032B2
:030023000213BA0B
:01002B0032A2
:01003300329A
:03003B000214AC00
:0300430002137B2A
:03004600021500A0
:02004900E4735E
:0D004B0075816312150BE58260030200460B
:1000580079DBE94400601B7A01901FB7780A75A024
:1000680002E493F2A308B8000205A0D9F4DAF27505
:02007800A0FFE7
:06007A00E478FFF6D8FD5A
:100080007800E84400600A799475A000E4F309D888
:10009000FC7876E84401600C7902900094E4F0A3C7
:0400A000D8FCD9FAB5
:1000A40075220075231575240075250075260175C4
:0E00B4002894752900E4F53DF53EF53FF54032
:0900C20075141A7515007516007D
:0E00CB007808E4F608F608F608F6780C7600D9
:0200D900C20063
:0300DB00020046DA
:1000DE009001AD7401F075820E12150F9001AE7481
:1000EE0001F075820E121626900BB8E4F5F0121A76
:1000FE00A19001AEE4F075820E1216269001F4E482
:10010E00F5F0121AA19001AD7401F075821112155D
:10011E000F9001ADE4F075822412150F9001ADE43D
:10012E00F075822512150F7582241215D67582254B
:10013E001215D6E58260057526008003752601E44A
:10014E00B5260302031B7401B52602800122120894
:10015E007A9001AE7401F07582111216269001ADDF
:10016E007401F075821012150F7F00BF5500504FAD
:10017E008F17751800900003C007121BB9AD82AE21
:10018E0083ED2494FDEE3400FE8D828E83E4F08D9B
:10019E00828E83A37464F08D828E83A3A3E4F07D9C
:1001AE00947E007B007CFF8D828E838CF0EB121D83
:1001BE002C900005E4F5F0121AA1D0070F80AC7F49
:1001CE0000BF5500504E8F17751800900003C007E2
:1001DE00121BB9AD82AE83ED2494FDEE3400FE8D7C
:1001EE00828E837464F08D828E83A3E4F08D828E72
:1001FE0083A3A3F07D947E007B007CFF8D828E8393
:10020E008CF0EB121D2C900005E4F5F0121AA1D023
:10021E00070F80AD7F00BF5500504E8F1775180029
:10022E00900003C007121BB9AD82AE83ED2494FD7E
:10023E00EE3400FE8D828E83E4F08D828E83A3F0E9
:10024E008D828E83A3A37464F07D947E007B007CEC
:10025E00FF8D828E838CF0EB121D2C900005E4F541
:10026E00F0121AA1D0070F80AD7F00BF5500504C81
:10027E008F17751800900003C007121BB9AD82AE20
:10028E0083ED2494FDEE3400FE8D828E83E4F08D9A
:10029E00828E83A3F08D828E83A3A3F07D947E0045
:1002AE007B007CFF8D828E838CF0EB121D2C9000D8
:1002BE0005E4F5F0121AA1D0070F80AF121A64AC44
:1002CE0082AD83AEF0FF8C398D3A8E3B8F3C8C35F0
:1002DE008D368E378F389001B3740DF0741FA3F0E6
:1002EE007480A3F090097F1216F8120960900064D2
:1002FE00E4F5F0121AA19001B37412F0741FA3F07A
:10030E007480A3F090097F1216F80209607F00BF77
:10031E005500504F8F17751800900003C007121B21
:10032E00B9AD82AE83ED2494FDEE3400FE8D828E47
:10033E0083E4F08D828E83A37464F08D828E83A30A
:10034E00A3E4F07D947E007B007CFF8D828E838CF7
:10035E00F0EB121D2C900005E4F5F0121AA1D00757
:10036E000F80AC9001ADE4F075821012150F53C6DC
:10037E007F9001AD7401F075822512150F9001AEBC
:10038E00E4F07582251216269001AEE4F075821106
:10039E001216269001AD7401F075822012150F9081
:1003AE0001AE7401F07582201216269001AE740112
:1003BE00F075820E021626E4B52602804E7401B543
:1003CE002655121A6485823185833285F033F534D1
:1003DE00120AC6E5826031120ACD858230AC31AD8B
:1003EE0032AE33AF348C398D3A8E3B8F3C8C358D9B
:1003FE00368E378F38E4B5240280077401B5241782
:10040E0080030204260206AE0207379001AE740185
:10041E00F07582200216262274FD25415003020536
:10042E006DE541901EEE93B5300B7402B541037528
:10043E002500054122E541901EF493B5300B740260
:10044E00B54103752501054122E541901EF193FF4B
:10045E00B5300280030205697402B54102800302C1
:10046E00056675820F12097F75820C12097F7582DF
:10047E005D12097F75820612097F903FFCE493F5A9
:10048E008212097F903FFDE493F58212097F903F1F
:10049E00FEE493F58212097F903FFFE493F58212FA
:1004AE00097F903FFAE493F58212097F903FFBE4B7
:1004BE0093F58212097F75820C12097F7E007F00F0
:1004CE00C3EE940CEF648094805020EE24F7F582F6
:1004DE00EF341EF583E493F582C007C00612097F40
:1004EE00D006D0070EBE00D80F80D5758205120932
:1004FE007F7E007F00C3EE9405EF648094805020D1
:10050E00EE2403F582EF341FF583E493F582C007E2
:10051E00C00612097FD006D0070EBE00D80F80D5B8
:10052E0075820512097F7E007F00C3EE9405EF648D
:10053E008094805020EE2408F582EF341FF583E47A
:10054E0093F582C007C00612097FD006D0070EBEF3
:10055E0000D80F80D575410005412275410022E576
:10056E004124F7500122E541240B83F582E5412415
:10057E000D83F583E473ADADAD969CA2A8AEB10626
:10058E00060605050505050585304205412285301F
:10059E0043054122853044054122853045054122DF
:1005AE00054122E4B5250280087401B52502807A42
:1005BE0022E5436542FF7E00630755AC447D00ECA7
:1005CE00B50763EDB5065F9001AE7401F075820E4E
:1005DE00121626AC427D007E008E078D068C057CA1
:1005EE0000A843E4F9FAFBE82CF517E93DF518EA03
:1005FE003EF519EB3FF51A900003E4F5F0121BD609
:10060E0085822C85832D85F02EF52FE4F52AF52B8A
:10061E00F5177518FFF51990009475F0001219C5AD
:10062E0085452775240175410022E5436542FF7E0D
:10063E0000630755AC447D00ECB50760EDB5065C74
:10064E009001AE7401F075820E121626AC427D003A
:10065E007E008E078D068C057C00A843E4F9FAFB1C
:10066E00E82CF517E93DF518EA3EF519EB3FF51ABA
:10067E00900003E4F5F0121BD685822C85832D8520
:10068E00F02EF52FE4F52AF52BF5177518FFF51951
:10069E0090009475F0001219C57524017541002261
:1006AE00AE2AAF2BC3EE9402EF94015017E52A2524
:1006BE0028F582E52B3529F583E530F0052AE4B5DA
:1006CE002A02052B152C74FFB52C0C152DB52D07F4
:1006DE00152EB52E02152FE52C452D452E452F70C6
:1006EE0047F524B527347E947F00AC2AAD2B0CBC85
:1006FE0000010D7D008D028C037C007D008E008F2D
:10070E0001E4FEFFE84204E94205EE4203EF420235
:10071E008C828D838BF0EA121D2C9001AEE4F07565
:10072E00820E12162602096022E531C39539FCE5C8
:10073E0032953AFDE533953BFEE534953CFFC3EC2F
:10074E0094E8ED9403EE9400EF9400500122E4B58A
:10075E00250280077401B5255A802D120960E53FE8
:10076E0045407013753F01F5409001AE7401F07570
:10077E00820E121626803CE4F53FF5409001AEF055
:10078E0075820E121626802B120960E53F454070C9
:10079E0013753F01F5409001AE7401F075820E1293
:1007AE001626800FE4F53FF5409001AEF075820EEF
:1007BE0012162685313985323A85333B85343CE530
:1007CE003D453E700122E531C39535FCE532953647
:1007DE00FDE5339537FEE5349538FF853D17853EAB
:1007EE0018751900751A009003E8E4F5F0C007C0FB
:1007FE0006C005C004121BD6A882A983AAF0FBD09E
:10080E0004D005D006D007C3EC98ED99EE9AEF9B75
:10081E0040597F00BF550050318F1775180090005A
:10082E0003C007121BB9AD82AE83D007ED2494FD31
:10083E00EE3400FE8D828E83E4F08D828E83A3F0E3
:10084E008D828E83A3A3F00F80CA7E947F007C00DE
:10085E007DFF8E828F838DF0EC121D2C752400850A
:0C086E0031358532368533378534382229
:10087A0012132912135312134275DD0075D3007532
:10088A00D50022900211E4F0900213F0227F007446
:10089A00F925DB50067D077E008004ADDB7E008FE4
:1008AA00037C00C3EB9DEC64808EF063F08095F0CE
:1008BA005017EF240AFDE43402FE8F82758300E0AC
:1008CA00FC8D828E83F00F80C6227F008F057E000A
:1008DA00C3ED9407EE940050188F057E00EF240AAA
:1008EA00F582E43402F583E0FC8D828E83F00F807A
:1008FA00DB90000722900002E0FF900214F0E02053
:10090A00E04690020AE0FCA3E0FDA3E0FEA3E0FFBC
:10091A00BCB035BD0432BE002FBF002C75E200C248
:10092A00AF75100075113890C350121B5290C35006
:10093A00121B52AE10AF11C007C0068E828F8312EF
:10094A000049D006D00780FE227F00900214E060A2
:10095A00027F018F8222900213E07018900215E044
:10096A00FFE060108FD553D4FC9002137401F0900D
:10097A000215E4F022AF82900214E060617D007EED
:10098A0000900213E060240DBD00010E900005C026
:10099A0007C006C005121B52D005D006D007C3ED0A
:1009AA009450EE94C340DA75820022900215E0FE5C
:1009BA00BE400050207D0074402EFEE43DFDEE2432
:1009CA0014F582ED3400F583EFF0900215E024016E
:1009DA00F075820122C007120960D007809F7582D4
:1009EA000022AFF0AE83E582900195F0EEA3F0EF1E
:1009FA00A3F0900214E07003020AC2900193E0FE91
:100A0A00A3E0FFC3E49E74808FF063F08095F0400A
:100A1A0003020AC27E007F00900213E060200EBE2D
:100A2A0000010F900005C007C006121B52D006D065
:100A3A0007C3EE9450EF94C340DE75820022900102
:100A4A0095E0FDA3E0FEA3E0FF900193E0FBA3E0A5
:100A5A00FCC3E49B74808CF063F08095F0509C900A
:100A6A000215E0FABA400050498A017A0074402916
:100A7A00F9E43AFAE92414F9EA3400FA8D828E8309
:100A8A008FF0121DD5F8A3AD82AE83900195EDF0DB
:100A9A00EEA3F0EFA3F089828A83E8F0900215E0D2
:100AAA002401F01BBBFF011C900193EBF0ECA3F0B7
:100ABA00809F120960020A0575820022900211E0E5
:100ACA00F58222900211E07003F58222900212E070
:100ADA002414F582E43400F583E0FF900212E00466
:100AEA00F0900211E014F0E0700353D4F38F8222E5
:100AFA00900211E07003F58222900212E02414F5AC
:100B0A0082E43400F583E0FF900212E004F09002E0
:100B1A0011E014F0E0700353D4F38F822275D500EC
:100B2A0074FC55D44402F5D4900213E4F02230DE6A
:100B3A0019900211E5DBF0900212E4F0900211E044
:0B0B4A00600874F355D44408F5D42271
:100B5500AFDBBF08028003021175900007E0FE7F3E
:100B650000900006E0FD7C00900198ED4FF0EC4E02
:100B7500A3F07F00900001E0FE90019AF08F16909F
:100B85000000E05460604D900000E0FD5305607C7E
:100B950000BD2005BC0002800BBD4033BC00307F8A
:100BA500FF021177BE2003021177BE21028005BE28
:100BB5002218800C1208D4AC82AD838C0702117701
:100BC500C0071208FFD0070211777FFF0211777F58
:100BD500FF021177EEFD24F45003021171ED240A92
:100BE50083F582ED241083F583E4734B7A713971B3
:100BF5003E08714D6E7777110F1110110F0C110F03
:100C05000F1111900003E0FEBE0102800DBE02022D
:100C1500801BBE03028029020EB3751216751302DE
:100C2500900228E0FDA3E0FE8D07020EB575122A9D
:100C3500751302900275E0FDA3E0FE8D07020EB567
:100C4500900002E0701375127775130290027BE035
:100C5500FDA3E0FE8D07020EB5900002E0FEBE0189
:100C6500137512B17513029002BFE0FDA3E0FE8D6E
:100C750007020EB5900002E0FEBE021375127D75E7
:100C85001302900297E0FDA3E0FE8D07020EB590DA
:100C95000002E0FEBE03028003020E8F90019C74E9
:100CA50030F090019D04F090019E04F090019F04A6
:100CB500F09001A004F09001A104F09001A204F0CD
:100CC5009001A304F09001A404F09001A504F09014
:100CD50001A67441F09001A704F09001A804F090DA
:100CE50001A904F09001AA04F09001AB04F0900171
:100CF500ACE4F09002C1741AF09002C27403F09053
:100D05003FFCE493C4540FFE53060F7D00EE249C74
:100D1500F582ED3401F583E09002C3F09002C4E45E
:100D2500F0903FFC93FE53060F7D00EE249CF58268
:100D3500ED3401F583E09002C5F09002C6E4F09031
:100D45003FFD93C4540FFE53060F7D00EE249CF522
:100D550082ED3401F583E09002C7F09002C8E4F01B
:100D6500903FFD93FE53060F7D00EE249CF582ED2A
:100D75003401F583E09002C9F09002CAE4F0903F97
:100D8500FE93C4540FFE53060F7D00EE249CF5829E
:100D9500ED3401F583E09002CBF09002CCE4F090C5
:100DA5003FFE93FE53060F7D00EE249CF582ED3445
:100DB50001F583E09002CDF09002CEE4F0903FFF84
:100DC50093C4540FFE53060F7D00EE249CF582ED6F
:100DD5003401F583E09002CFF09002D0E4F0903F2B
:100DE500FF93FE53060F7D00EE249CF582ED340142
:100DF500F583E09002D1F09002D2E4F0903FFA93AF
:100E0500C4540FFE53060F7D00EE249CF582ED348D
:100E150001F583E09002D3F09002D4E4F0903FFA1C
:100E250093FE53060F7D00EE249CF582ED3401F50B
:100E350083E09002D5F09002D6E4F0903FFB93C496
:100E4500540FFE53060F7D00EE249CF582ED340110
:100E5500F583E09002D7F09002D8E4F0903FFB9341
:100E6500FE53060F7D00EE249CF582ED3401F583DB
:100E7500E0FE9002D9F09002DAE4F075141AF51547
:100E85007512C17513027F1A8026900002E0FEBE1E
:100E950004127512997513029002AFE0FDA3E0FEEE
:100EA5008D07800C7512C1751302AF1480027FFF88
:100EB500BFFF03021177900198E0FDA3E0FE8F03C9
:100EC5007C00C3EB9DEC9E5008900198EBF0ECA3E1
:100ED500F0900198E0FDA3E0FE8D038E04C3EB9432
:100EE50008EC940040067B087C0080048D038E048A
:100EF5008B077E00C3EE9F50188E047D00EE2512F1
:100F0500F582E43513F583E0FB8C828D83F00E804A
:100F1500E38F057E00900198E0FBA3E0FCEBC39D09
:100F2500FBEC9EFC900198EBF0ECA3F0EF2512F59D
:100F350012E43513F513021177900002E0FE9001DB
:100F450098F0E4A3F002117790019BE0900000F087
:100F5500900198E0FDA3E0FEC3ED9401EE940050EE
:100F6500030211777F01021177900002E0FE9001E4
:100F75009BF0021177900000E0541F702E90000343
:100F8500E0FD7E00900002E0FC7B004206EB42059E
:100F9500BE0113BD0010900231E0FE30E5030211E1
:100FA500777FFF0211777FFF021177900000E0FE47
:100FB50053061F7D00BE0277BD0074900004E0FE5D
:100FC500BE0102805FBE02028049BE03028033BEBD
:100FD5000402801DBE81028040BE8202802ABE833B
:100FE500028014BE844474BC55DE4402F5DE021151
:100FF5007753DE7302117774BC55D64402F5D602D9
:10100500117753D67302117774BC55D44402F5D4C5
:1010150002117753D47302117774BC55D24402F58B
:10102500D202117753D2730211777FFF0211777FB6
:10103500FF021177900000E0541F702E900003E02E
:10104500FD7E00900002E0FC7B004206EB4205BEFF
:101055000113BD0010900231E0FE30E50302117767
:101065007FFF0211777FFF021177900000E0FE53AA
:10107500061F7D00BE0205BD0002800302114790D8
:101085000003E0FD7E00900002E0FC7B004206EBE1
:101095004205EE4D6003021143900005E0FD7E0020
:1010A500900004E0FC7B004206EB4205BE0106BD54
:1010B5000003021137BE0205BD00028061BE0305B3
:1010C500BD00028045BE0405BD00028029BE810524
:1010D500BD00028053BE8205BD00028037BE830578
:1010E500BD0002801BBE8452BD004F74BF55DE4457
:1010F50003F5DE021177747F55DE440CF5DE807250
:1011050074BF55D64403F5D68068747F55D6440C14
:10111500F5D6805E74BF55D44403F5D48054747FEE
:1011250055D4440CF5D4804A74BF55D24403F5D246
:101135008040747F55D2440CF5D27FFF80347FFF09
:1011450080307FFF802C900000E4F0900001F0904B
:101155000198E0FDA3E0FE8D038E04C3EB9402EC41
:10116500940040047F02800A8D0780067FFF80027D
:101175007FFFBFFF0A90019A74FFF075DCCF22EF65
:1011850024F740068FDD75DCC02275DD0075DCC0F7
:101195002290019AE0FFBF0503021216BF060280E6
:1011A5000302122A900198E0FEA3E0FF8E048F054A
:1011B500C3EC9408ED940040067C087D0080048E05
:1011C500048F057F00C3EF9C50188F057E00EF2527
:1011D50012F582E43513F583E0FB8D828E83F00FE3
:1011E50080E38C067F00900198E0FBA3E0FDEBC354
:1011F5009EFBED9FFD900198EBF0EDA3F0EC251221
:10120500F512E43513F5138CDDAEDC6306408EDC98
:1012150022E5E35480FF900198E0FDA3E0ED4FF552
:10122500E375DC022275DD0075DC022290019AE08F
:10123500FFBF200D30DE1012089775DD0085DCDC60
:101245002275DD0043DC022275D30074FC55D244BF
:1012550002F5D22220D903021304E5D9540FFFADBC
:10126500D95305307E00BD0005BE0002801CBD10AF
:1012750005BE00028036BD2005BE00028043BD309C
:1012850006BE00030212EA021302EF24FB5003021A
:101295001302EF2F90129D73800880618009805D95
:1012A500805B1212318056120B388051EF24FB40BF
:1012B5004CEF2F9012BC73804480428040803E806A
:1012C5003CEF24FB4037EF2F9012D1738008800B41
:1012D500800E80298027121196802212124D801DC2
:1012E500120B278018EF24FB4013EF2F9012F57394
:1012F50080088009800780058003120B55C2D9300C
:10130500D81575DC0275D21275D41275E300C2DAF0
:10131500C2D9C2D812088D10DA0122E5DA20E2031B
:1013250075D8FF2275E20053E27F43E22975E30099
:1013350053E2BF53D1FB75D18043D1012243E10470
:1013450043E10243E10143D81FD2EAD2AF227E0A2C
:101355007F008EEE8FEF7E147F008EE48FE575EBB8
:101365000C75D21275D4127E007F008EEC8FED7550
:06137500EA4075DC0222D3
:10137B00C021C0E0C0F0C082C083C007C006C0055A
:10138B00C004C003C002C001C000C0D075D00012A1
:10139B001259D0D0D000D001D002D003D004D00548
:1013AB00D006D007D083D082D0F0D0E0D02132C08D
:1013BB0021C0E0C0F0C082C083C007C006C005C01A
:1013CB0004C003C002C001C000C0D075D00030986B
:1013DB0005121DF1C298309905121E27C299D0D063
:1013EB00D000D001D002D003D004D005D006D00756
:1013FB00D083D082D0F0D0E0D02132C021C0E0C069
:10140B00F0C082C083C007C006C005C004C003C0C3
:10141B0002C001C000C0D075D0009002DDE0FEA379
:10142B00E0FFC007C0068E828F83120049D006D022
:10143B0007D0D0D000D001D002D003D004D005D03B
:10144B0006D007D083D082D0F0D0E0D02132C0219B
:10145B00C0E0C0F0C082C083C007C006C005C00496
:10146B00C003C002C001C000C0D075D0009002DF25
:10147B00E0FEA3E0FFC007C0068E828F83120049F7
:10148B00D006D007D0D0D000D001D002D003D004EA
:10149B00D005D006D007D083D082D0F0D0E0D021B9
:1014AB0032C021C0E0C0F0C082C083C007C006C0FC
:1014BB0005C004C003C002C001C000C0D075D0007D
:1014CB009002DBE0FEA3E04E600E9002DBE0F8A39F
:1014DB00E0F5838882120049D0D0D000D001D00231
:1014EB00D003D004D005D006D007D083D082D0F063
:1014FB00D0E0D02132121B6A1200DE1203C580FB32
:04150B0075820022C3
:10150F00E582FF901F6793FEEF901F3F93FF7001DF
:10151F00229001ADE0FD701BBF0209EEF4FC529268
:10152F00EC529322BF0402800122EEF4FC5296EC9F
:10153F00529722BD0214BF0207EE4292EE4293224F
:10154F00BF0439EE4296EE429722BD0116BF020844
:10155F00EEF45292EE429322BF0421EEF45296EE35
:10156F00429722BD0316BF0208EE4292EEF4529349
:10157F0022BF0408EE4296EEF4FE529722AF82BFCE
:10158F000102800FBF02028013BF03028017BF0446
:10159F00358023E5C620E22E539DFB22E5C620E3CE
:1015AF0025539DF722AEC65306047F00BE0117BF19
:1015BF000014539DFB22AEC65306087F00BE0106E2
:1015CF00BF0003539DF722E582FF901F1793FEEF95
:1015DF00901F6793FDEF901F3F93FF7003F58222DB
:1015EF00EE600D8E82C007C00512158CD005D00796
:1015FF007E00BF0202800ABF03028009BF040C8075
:10160F0008AE908006AEA08002AEB0ED5E600475AD
:10161F0082012275820022E582FF901F1793FEEF51
:10162F00901F6793FDEF901F3F93FFEE600D8E822B
:10163F00C007C00512158CD005D007A2AFE433FE4A
:10164F00C2AFBF0202800ABF03028017BF043680F9
:10165F00249001AEE07007EDF4FF52908027ED4229
:10166F009080229001AEE07007EDF4FF52A080153C
:10167F00ED42A080109001AEE07007EDF4FF52B084
:0B168F008003ED42B0EE6002D2AF22FB
:10169A00AE82AF839001AFE0FBA3E0FCA3E0FD7A4A
:1016AA00009001B2E0F9890019E8603F8B828C83CF
:1016BA008DF0121DD5F8A3AB82AC83C007C006C05B
:1016CA0005C004C003C002C0011216D88007C006B4
:1016DA00C007888222A882D001D002D003D004D0C9
:1016EA0005D006D007E860030A80BB8A8222AE8250
:1016FA00AF839001B3E0FBA3E0FCA3E0FD9001B34C
:10170A00E0F5F0A3E045F07003F582227A008B82BF
:10171A008C838DF0121DD5F9A3AB82AC83E9F860F6
:10172A002CC007C006C005C004C003C00212173C83
:10173A008007C006C007888222A982D002D003D0BF
:10174A0004D005D006D007E960030A80C18A822244
:10175A00AE82AF839001B6E0FAA3E0FBA3E0FCA35C
:10176A00E0FD9001BEEAF0EBA3F0ECA3F0EDA3F0EC
:10177A009001C2740AF08E828F830217EBAE82AF99
:10178A00839001BAE0FAA3E0FBA3E0FCA3E0FD909A
:10179A0001E4EAF0EBA3F0ECA3F0EDA3F09001E88A
:1017AA00740AF08E828F830218D0AE82AF83C0078C
:1017BA00C0061217C18008C006C00775820D22AD87
:1017CA0082D006D007C007C0051217D88008C00605
:1017DA00C00775820A22AE82D005D007EE2DF582A7
:1017EA00228582468583479001E3E4F09001C2E0B6
:1017FA00FDBD020050069001C2740AF09001C2E0D9
:10180A00F5487BE37C019001BEE0F549A3E0F54A87
:10181A00A3E0F54BA3E0F54C85484D754E00754F96
:10182A0000755000854D17854E18854F1985501A39
:10183A00854982854A83854BF0E54CC004C0031272
:10184A001C44A882854D17854E18854F1985501A54
:10185A00854982854A83854BF0E54CC000121CC736
:10186A00AA82AD83AEF0FFD000D003D0049001BEAF
:10187A00EAF0EDA3F0EEA3F0EFA3F01BBBFF011C0F
:10188A008B068C07B80A005008880574302DFD8035
:10189A0004743728FD8E828F83EDF09001BEE0F547
:1018AA00F0A3E042F0A3E042F0A3E045F0600302B7
:1018BA0018109001B3EBF0ECA3F0E4A3F085468294
:1018CA008547830216F88582518583529001E8E0A4
:1018DA00FD70199001E4E0F9A3E0FAA3E0FBA3E0AC
:1018EA00FC0218EEC051C05289822222BD0A02802F
:1018FA000302199B9001E4E0F9A3E0FAA3E0FBA339
:10190A00E0FC30E76FC004C003C002C00112191C1A
:10191A008008C051C05275822D22A882D001D002FF
:10192A00D003D00488539001E4C3E499F0E49AA365
:10193A00F0E49BA3F0E49CA3F09001E4E0F554A347
:10194A00E0F555A3E0F556A3E0F5579001BEE5543E
:10195A00F0E555A3F0E556A3F0E557A3F09001C2D0
:10196A00740AF08551828552831217EBAF82E553D0
:10197A002FF582229001BEE9F0EAA3F0EBA3F0EC86
:10198A00A3F09001C2740AF085518285528302172E
:10199A00EB9001E4E0FBA3E0FCA3E0FEA3E0FF90F0
:1019AA0001BEEBF0ECA3F0EEA3F0EFA3F09001C2BE
:1019BA00EDF08551828552830217EBAC82AD83AE7E
:1019CA0018AF19BE0004EF600C1F0FE517121B9E1B
:0A19DA00A3DEFADFF88C828D832271
:1019E400C0D075D00808B8000D09B900090ABA00BA
:1019F400050BBB00010CD0D032A2AFC2AFA808A91E
:101A040009AA0AAB0BAC8A8588F092AF30F5127440
:101A1400012C600D08B8000909B900050ABA0001D3
:101A24000BC3EC9406FCECC313FC75F07DE8A4F83E
:101A3400ADF075F07DE9A42DF9E435F0FD75F07D88
:101A4400EAA42DFAE435F0FD75F07DEBA42DFB7DC1
:101A540000EC28F582E93DF583EA3DF5F0EB3D2203
:101A6400A2AFC2AFA808A909AA0AAB0BAC0C92AFEB
:101A740075F020E8A4A8F075F020E9A428F582A860
:101A8400F075F020EAA428F583A8F075F020EBA403
:101A940028F9A8F075F020ECA42889F02285825852
:101AA40085835985F05AF55B1219FD85825C85831F
:101AB4005D85F05EF55FE5584559455A455B700113
:101AC40022A858A959AA5AAB5B855C60855D6185DB
:101AD4005E62855F63E8494A4B60DBC003C002C0B5
:101AE40001C0001219FDAC82AD83AEF0FFD000D06E
:101AF40001D002D003ECC39560FCED9561FDEE9539
:101B040062FEEF9563FFC3EC94E8ED9403EE94005A
:101B1400EF940040A118B8FF0919B9FF051ABAFFDC
:101B2400011B885889598A5A8B5B74E82560F560D3
:101B340074033561F561E43562F562E43563F56398
:101B440085605C85615D85625E85635F8087AE824A
:101B5400AF83EE4F600F05A105A105A105A11EBE2F
:101B6400FF011F80ED2275A15575A1AA74F855B91E
:101B74004406F5B975A100901388121B52759E5D39
:101B8400759D0074F055894402F58953C9EF758C2D
:101B940006C28DD2A9D28CD2AF2220F71130F6130F
:101BA4008883A88220F509F6A8837583002280FE25
:101BB400F280F5F022E5828517F0A4C582C0F08595
:101BC40018F0A4D0F025F0C5838517F0A42583F57B
:101BD4008322AAF0FBE5828517F0A4FCADF0E5832F
:101BE4008517F0A42DFDE435F0FEE5828518F0A4F8
:101BF4002DFDE5F03EFEE433FFEA8517F0A42EFE4A
:101C0400E5F03FFFE5838518F0A42EFEE5F03FFFE5
:101C1400E5828519F0A42EFEE5F03FFFEB8517F071
:101C2400A42FFFEA8518F0A42FFFE5838519F0A4FB
:101C34002FFFE582851AF0A42F8EF08D838C8222EB
:101C4400F9E51745184519451A60777800C308E582
:101C54001A20E73BE51725E0F517E51833F518E5F5
:101C64001933F519E51A33F51AE5829517E58395C5
:101C740018E5F09519E9951A50D4C3E51A13F51A25
:101C8400E51913F519E51813F518E51713F517E514
:101C9400829517FCE5839518FDE5F09519FEE99505
:101CA4001A4007F98EF08D838C82C3E51A13F51A56
:101CB400E51913F519E51813F518E51713F517D8F1
:101CC400CEE922FB7A20E4FCFDFEFFE5822582F5C5
:101CD40082E58333F583E5F033F5F0EB33FB40170E
:101CE400DAE98042E5822582F582E58333F583E5EE
:101CF400F033F5F0EB33FBEC33FCED33FDEE33FE68
:101D0400EF33FFEC9517ED9518EE9519EF951A4002
:101D140013EC9517FCED9518FDEE9519FEEF951A49
:101D2400FF438201DABEEB22ABF0A2AFE433FEC282
:011D3400AFFF
:101D3600E0A3D2963300500A000000000000000025
:101D46000000C296400A00000000000000000000EB
:101D5600530207DADDDBD900C296EE6002D2AF226B
:101D660022AF82BF02005036EF75F002A424DDF5E3
:101D760082740235F0F583E517F0E518A3F0BF008D
:101D8600028005BF0118800B9001E9E024FF9288CC
:101D9600D2A8229001E9E0FF24FF928AD2AA22AFBC
:101DA60082BF02005028BF00028005BF01088004E0
:101DB600C2A88002C2AAEF75F002A424DDFE740256
:0F1DC60035F0FF8E828F837466F0741DA3F022B8
:101DD50020F71430F6148883A88220F507E6A88337
:0C1DE50075830022E280F7E49322E022E4
:101DF1009002E1E0FF7E008F828E83A37517108E23
:101E010018121EB8AE829002E2E0FFEEB507012281
:101E11009002E1E024EAF582E43401F583E599F0EA
:101E21009002E1EEF0223000409002E3E0FF9002E8
:101E3100E4E0FEEFB50605A200C200229002E4E054
:101E410024FAF582E43401F583E0F5999002E4E0A7
:101E5100FF7E008F828E83A37517108E18121EB815
:0A1E6100AE82AF839002E4EEF0229F
:101E6B00E517451860467A01E51725E0F517E518E3
:101E7B00334012F518E5829517E583951840030A50
:101E8B0080E6C3E51813F518E51713F517C3E582BC
:101E9B009517F5F0E58395184005F58385F082C31A
:101EAB00E51813F518E51713F517DAE122C2D5E596
:101EBB008330E70DD2D5E4C39582F582E49583F5A3
:101ECB0083E51830E70BE4C39517F517E49518F580
:101EDB0018121E6B30D50BE4C39582F582E4958303
:031EEB00F583225A
:101EEE0061626E646972416461416D62696E6F20F8
:101EFE004261736963312E302E3541425232704148
:091F0E00626E0A004164610A00E0
:101F170000000000000000000000000000000001B9
:101F270000000000000000000000000000000304A3
:101F37000000020000000000010101010101010190
:101F4700000002020202020202020000030303036E
:101F5700030303030000040404040404040400004E
:101F6700010204081020408000000102040810202C
:101F77004080000001020408102040800000010298
:101F87000408102040800000FFFFFFFFFFFFFFFF56
:101F9700FFFFFF00FFFF0102FFFFFFFFFFFFFFFF44
:101FA700FFFFFFFFFFFFFFFF03FFFFFFFFFFFFFF36
:101FB70000E100000000080000000000120110010D
:101FC700EF020108091250C50101010203011200C5
:101FD70009024B000201008064080B0002020201A3
:101FE7000409040000010202010405240010010590
:101FF70024010000042402020524060001070581CC
:102007000308004009040100020A00000407050252
:1020170002400000070582024000004B000403094C
:102027000404001A0341006D00620069006E006F2E
:10203700002000420061007300690063001A001667
:102047000343004400430020005300650072006909
:102057000061006C0016000E0341006D006200690C
:07206700006E006F000E0087
:10206E000C033000310032003300340035003600EE
:0A207E00370038003900410042002D
:02208800000056
:04208A00661D661D4C
:04208E00000000004E
:00000001FF
