:0600000002006B021486F1
:03000B00021A6670
:030013000214D9FB
:01001B0032B2
:030023000213EED7
:03002B00021F3879
:01003300329A
:03003B0002152C7F
:030043000213AFF6
:01004B003282
:0300530002143A5A
:01005B003272
:03006300021E7BFF
:0300660002158000
:02006900E4733E
:0D006B0075816B12158BE582600302006643
:1000780079E1E94400601B7A01902471787A75A0CF
:1000880001E493F2A308B8000205A0D9F4DAF275E6
:02009800A0FFC7
:06009A00E478FFF6D8FD3A
:1000A0007800E84400600A799475A000E4F309D868
:1000B000FC78E6E84400600C7901900094E4F0A339
:0400C000D8FCD9FA95
:1000C4007522807523157524007525007526017524
:1000D4002894752900E4F53DF53EF53FF540F541DA
:0600E400F542F543F5446E
:0900EA0075191A751A00751B0046
:0E00F3007808E4F608F608F608F6780C7600B1
:02010100C20337
:02010300C20434
:030105000200668F
:100109001208DF9000FC7401F075821F12158F90A0
:1001190000FC7401F075822012158F9000FC7401A7
:10012900F075821E12158F9000FC7401F075820E15
:1001390012158F9000FC7401F075822212158F90B0
:1001490000FC7401F075820F12158F9000FC740188
:10015900F075822112158F9000FC7401F0758210E0
:1001690012158F9000FC7401F075820B12158F9097
:1001790000FC7401F075821112158F121AE6AC8217
:10018900AD83AEF0FF8C398D3A8E3B8F3C8C358D2B
:10019900368E378F3890010274CCF07423A3F07433
:1001A90080A3F09009ED1217791209CE900064E44A
:1001B900F5F0121B230209CE121AE68582318583D6
:1001C9003285F033F534120B34E5826031120B3B82
:1001D900858230AC31AD32AE33AF348C398D3A8E45
:1001E9003B8F3C8C358D368E378F38E4B5240280B1
:1001F900077401B5240B800302028202055002072D
:10020900EE229000FD7401F075821E1216A6900070
:10021900FD7401F075821F1216A69086A075F00173
:10022900E4121C4B758261121D0A758262121D0A45
:1002390075826E121D0A75820F121D0A75820C12C3
:100249001D0A75825D121D0A758200121D0A7582CA
:1002590000121D0A758200121D0A7F00BF0A005094
:1002690017EF24DCF582E43400F583E0F582C0075A
:10027900121D0AD0070F80E42274FD2545500302A0
:100289000411E5459023A293B5300B7402B54503DB
:10029900752500054522E5459023AE93B5300B74CD
:1002A90002B54503752501054522E5459023A5932A
:1002B900FFB5300280030203C57402B5450280030D
:1002C9000203C275820F1209ED75820C1209ED75D0
:1002D900825D1209ED7582061209ED903FFCE493E7
:1002E900F5821209ED903FFDE493F5821209ED9034
:1002F9003FFEE493F5821209ED903FFFE493F58206
:100309001209ED903FFAE493F5821209ED903FFB53
:10031900E493F5821209ED75820D1209ED7E007FD5
:1003290000C3EE940DEF648094805020EE24B1F563
:1003390082EF3423F583E493F582C007C0061209DE
:10034900EDD006D0070EBE00D80F80D575820512F4
:1003590009ED7E007F00C3EE9405EF648094805020
:1003690020EE24BEF582EF3423F583E493F582C0B1
:1003790007C0061209EDD006D0070EBE00D80F80BF
:10038900D57582051209ED7E007F00C3EE9405EF55
:10039900648094805020EE24C3F582EF3423F583E2
:1003A900E493F582C007C0061209EDD006D0070E06
:1003B900BE00D80F80D5754500054522E545902337
:1003C900AB93FFB5303E7402B5453675820F1209FD
:1003D900ED75820C1209ED75825D1209ED75820ABF
:1003E9001209ED7F00BF0A005017EF24DCF582E403
:1003F9003400F583E0F582C0071209EDD0070F80BC
:10040900E405452275450022E54524F7500122E51A
:1004190045240B83F582E545240D83F583E4734F69
:100429004F4F3A40464C5284050505040404040420
:1004390004853046054522853047054522853048E3
:100449000545228530490545227E007F00C3EE948B
:100459000AEF6480948050209000DCE0B53002807F
:1004690010752601EE24DCF582EF3400F583E530C2
:10047900F00EBE00D80F80D5054522E4B5250280CF
:10048900087401B52502806122E54765466455B5C2
:100499004853AC467D007E008E078D068C057C0096
:1004A900A847E4F9FAFBE82CF568E93DF569EA3E65
:1004B900F56AEB3FF56B900003E4F5F0121ECA856F
:1004C900822C85832D85F02EF52FE4F52AF52BF561
:1004D90068756948F56A90009475F000121A4785A5
:1004E900492775240175450022E54765466455FF8E
:1004F900B54850AC467D007E008E078D068C057C84
:1005090000A847E4F9FAFBE82CF568E93DF569EA42
:100519003EF56AEB3FF56B900003E4F5F0121ECA55
:1005290085822C85832D85F02EF52FE4F52AF52B70
:10053900F568756948F56A90009475F000121A47D4
:1005490075240175450022C3E52A944BE52B9400D7
:100559005017E52A2528F582E52B3529F583E5305D
:10056900F0052AE4B52A02052B152C74FFB52C0CCD
:10057900152DB52D07152EB52E02152FE52C452D58
:10058900452E452F600122752400E52724F65003E6
:100599000209CEE527240B83F582E527240E83F58E
:1005A90083E473C0F72E659CD30A4181B70505061C
:1005B900060606070707077E947F00AC2AAD2B0CB9
:1005C900BC00010D7D008D028C037C007D008E0036
:1005D9008F01E4FEFFE84204E94205EE4203EF42DF
:1005E900028C828D838BF0EA1220A50209CE7E94BB
:1005F9007F00AC2AAD2B0CBC00010D7D008D028C57
:10060900037C007D008E008F01E4FEFFE84204E9CF
:100619004205EE4203EF42028C828D838BF0EA128F
:10062900206B0209CE7E947F00AC2AAD2B0CBC0056
:10063900010D7D008D028C037C007D008E008F01F1
:10064900E4FEFFE84204E94205EE4203EF42028C70
:10065900828D838BF0EA1221F20209CE7E947F000B
:10066900AC2AAD2B0CBC00010D7D008D028C037CE6
:10067900007D008E008F01E4FEFFE84204E9420597
:10068900EE4203EF42028C828D838BF0EA12217EC7
:100699000209CE7E947F00AC2AAD2B0CBC00010D63
:1006A9007D008D028C037C007D008E008F01E4FEAD
:1006B900FFE84204E94205EE4203EF42028C828DD3
:1006C900838BF0EA1220310209CE7E947F00AC2A96
:1006D900AD2B0CBC00010D7D008D028C037C007DCF
:1006E900008E008F01E4FEFFE84204E94205EE4274
:1006F90003EF42028C828D838BF0EA12222C0209CD
:10070900CE7E947F00AC2AAD2B0CBC00010D7D0080
:100719008D028C037C007D008E008F01E4FEFFE8D2
:100729004204E94205EE4203EF42028C828D838B3B
:10073900F0EA121F3A0209CEE526600612020B758D
:1007490026007E947F00AC2AAD2B0CBC00010D7DE8
:10075900008D028C037C007D008E008F01E4FEFF7A
:10076900E84204E94205EE4203EF42028C828D839E
:100779008BF0EA121FF7806A7E947F00AC2AAD2BBA
:100789000CBC00010D7D008D028C037C007D008E68
:10079900008F01E4FEFFE84204E94205EE4203EF5F
:1007A90042028C828D838BF0EA1221B880347E94C8
:1007B9007F00AC2AAD2B0CBC00010D7D008D028C95
:1007C900037C007D008E008F01E4FEFFE84204E90E
:1007D9004205EE4203EF42028C828D838BF0EA12CE
:1007E90021440209CEE531C39539FCE532953AFD3C
:1007F900E533953BFEE534953CFFC3EC94E8ED9475
:1008090003EE9400EF9400500122E4B5250280071D
:100819007401B52552803B1209CEE53F4540702B46
:10082900753F01F540FEFFC3EE940AEF64809480A2
:100839005014EE24DCF582EF3400F58374C8F00E11
:10084900BE00E40F80E112020B801CE4F53FF54085
:1008590080151209CEE53F45407007753F01F54007
:100869008005E4F53FF54085313985323A85333BDA
:1008790085343CE53D453E605BE531C39535FCE596
:10088900329536FDE5339537FEE5349538FF853DDC
:1008990068853E69756A00756B009003E8E4F5F0B8
:1008A900C007C006C005C004121ECAA882A983AA2F
:1008B900F0FBD004D005D006D007C3EC98ED99EE33
:1008C9009AEF9B400F752400853135853236853383
:0508D9003785343822D0
:1008DF0012135D12138712137675DD0075D3007531
:1008EF00D50022900181E4F0900183F0227F00C3B4
:1008FF00E5DB9407920040067D077E008004ADDBA8
:10090F007E008F037C00C3EB9DEC64808EF063F060
:10091F008095F05017EF247AFDE43401FE8F827535
:10092F008300E0FC8D828E83F00F80C3227F008FC7
:10093F00057E00C3ED9407EE940050188F057E00DE
:10094F00EF247AF582E43401F583E0FC8D828E8307
:10095F00F00F80DB90000722900002E0FF900184EF
:10096F00F0E020E04990017AE0FCA3E0FDA3E0FE77
:10097F00A3E0FFBCB038BD0435BE0032BF002F75F9
:10098F00E200C2AF75890075100075113890C35021
:10099F00121BD490C350121BD4AE10AF11C007C09E
:1009AF00068E828F83120069D006D00780FE2275D3
:1009BF006800900184E06003756801856882229069
:1009CF000183E07018900185E0FFE060108FD55330
:1009DF00D4FC9001837401F0900185E4F022AF8282
:1009EF00900184E060617D007E00900183E06024CF
:1009FF000DBD00010E900005C007C006C005121BFB
:100A0F00D4D005D006D007C3ED9450EE94C340DA8E
:100A1F0075820022900185E0FEBE400050207D00CF
:100A2F0074402EFEE43DFDEE2414F582ED3400F506
:100A3F0083EFF0900185E02401F075820122C00759
:100A4F001209CED007809F75820022AFF0AE83E5EA
:100A5F00829000E8F0EEA3F0EFA3F0900184E07035
:100A6F0003020B309000E6E0FEA3E0FFC3E49E74A8
:100A7F00808FF063F08095F04003020B307E007F93
:100A8F0000900183E060200EBE00010F900005C0B2
:100A9F0007C006121BD4D006D007C3EE9450EF94B4
:100AAF00C340DE758200229000E8E0FDA3E0FEA3C4
:100ABF00E0FF9000E6E0FBA3E0FCC3E49B74808CB6
:100ACF00F063F08095F0509C900185E0FABA4000F9
:100ADF0050498A017A00744029F9E43AFAE924145A
:100AEF00F9EA3400FA8D828E838FF01222D6F8A3A2
:100AFF00AD82AE839000E8EDF0EEA3F0EFA3F089A6
:100B0F00828A83E8F0900185E02401F01BBBFF018E
:100B1F001C9000E6EBF0ECA3F0809F1209CE020AC6
:100B2F007375820022900181E0F58222900181E0AD
:100B3F007003F58222900182E02414F582E43400E0
:100B4F00F583E0FF900182E004F0900181E014F062
:100B5F00E0700353D4F38F822275D50074FC55D403
:100B6F004402F5D4900183E4F02230DE1990018124
:100B7F00E5DBF0900182E4F0900181E0600874F30E
:070B8F0055D44408F5D422FF
:100B9700AFDBBF080280030211BB900007E0FE7FB6
:100BA70000900006E0FD7C004FF512EC4EF5138F28
:100BB7001C900001E0F5148F1B900000E0FE5460CC
:100BC7006052900000E0FE5306607D00BE2005BD28
:100BD7000002800CBE4037BD0034751CFF0211BEF9
:100BE7007420B514030211BE7421B5140280077472
:100BF70022B51414800C12093CAD82AE838D1C0201
:100C070011BE1209670211BE751CFF0211BE751CC9
:100C1700FF0211BEE51424F450030211B6E51424B3
:100C27000B83F582E514241083F583E47396BDB630
:100C370080B68B4CB698B4BEBE110F1110110F0CB5
:100C4700110F0F1111900003E0FEBE0102800DBECF
:100C57000202801EBE0302802F020F0F75168675D3
:100C67001701751800900198E0FDA3E0FE8D1C02A6
:100C77000F1275169A7517017518009001E5E0FDBA
:100C8700A3E0FE8D1C020F12900002E0701575168E
:100C9700E7751701F5189001EBE0FDA3E0FE8D1C49
:100CA700020F12900002E0FEBE011675162375179B
:100CB70002751800900231E0FDA3E0FE8D1C020FC3
:100CC70012900002E0FEBE02167516ED751701754B
:100CD7001800900209E0FDA3E0FE8D1C020F1290A0
:100CE7000002E0FEBE03028003020EE49000EB74F4
:100CF70030F09000EC04F09000ED04F09000EE046A
:100D0700F09000EF04F09000F004F09000F104F090
:100D17009000F204F09000F304F09000F404F090D7
:100D270000F57441F09000F604F09000F704F0909D
:100D370000F804F09000F904F09000FA04F0900035
:100D4700FBE4F0900233741AF09002347403F090CD
:100D57003FFCE493C4540FFE53060F7D00EE24EBD3
:100D6700F582ED3400F583E0900235F0900236E429
:100D7700F0903FFC93FE53060F7D00EE24EBF582C7
:100D8700ED3400F583E0900237F0900238E4F090FC
:100D97003FFD93C4540FFE53060F7D00EE24EBF581
:100DA70082ED3400F583E0900239F090023AE4F0E6
:100DB700903FFD93FE53060F7D00EE24EBF582ED89
:100DC7003400F583E090023BF090023CE4F0903F62
:100DD700FE93C4540FFE53060F7D00EE24EBF582FD
:100DE700ED3400F583E090023DF090023EE4F09090
:100DF7003FFE93FE53060F7D00EE24EBF582ED34A4
:100E070000F583E090023FF0900240E4F0903FFF4E
:100E170093C4540FFE53060F7D00EE24EBF582EDCD
:100E27003400F583E0900241F0900242E4F0903FF5
:100E3700FF93FE53060F7D00EE24EBF582ED3400A1
:100E4700F583E0900243F0900244E4F0903FFA9378
:100E5700C4540FFE53060F7D00EE24EBF582ED34EC
:100E670000F583E0900245F0900246E4F0903FFAE7
:100E770093FE53060F7D00EE24EBF582ED3400F56B
:100E870083E0900247F0900248E4F0903FFB93C460
:100E9700540FFE53060F7D00EE24EBF582ED340070
:100EA700F583E0900249F090024AE4F0903FFB930B
:100EB700FE53060F7D00EE24EBF582ED3400F5833B
:100EC700E0FE90024BF090024CE4F075191AF51A07
:100ED700751633751702F518751C1A802E900002C7
:100EE700E0FEBE041575160B751702751800900203
:100EF70021E0FDA3E0FE8D1C8011751633751702E6
:100F070075180085191C8003751CFF74FFB51C0339
:100F17000211BEAD1C7E00C3ED9512EE9513500471
:100F27008D128E13AD12AE13C3ED9408EE9400929A
:100F37000140067B087C008004AB12AC138B1C7C41
:100F470000C3EC951C50208C027B00EC2516F8E4BE
:100F57003517F9AF18888289838FF01222D6F88A5D
:100F6700828B83F00C80DAAC1C7F00EDC39CFDEE16
:100F77009FFE8D128E13E51C2516F516E43517F521
:100F8700170211BE900002E0FF8F127513000211C5
:100F9700BE900000E515F0AE12AF13C3EE9401EF5B
:100FA700940050030211BE751C010211BE9000028D
:100FB700E0F5150211BE900000E0541F703090005C
:100FC70003E0FE7F00900002E0FD7C004207EC4258
:100FD70006BF0114BE00119001A1E0FF30E5030236
:100FE70011BE751CFF0211BE751CFF0211BE9000D9
:100FF70000E0FF53071F7E00BF0278BE0075900018
:1010070004E0FFBF0102805FBF02028049BF030205
:101017008033BF0402801DBF81028040BF820280EF
:101027002ABF83028014BF844474BC55DE4402F592
:10103700DE0211BE53DE730211BE74BC55D64402E4
:10104700F5D60211BE53D6730211BE74BC55D444F3
:1010570002F5D40211BE53D4730211BE74BC55D22B
:101067004402F5D20211BE53D2730211BE751CFFA2
:101077000211BE751CFF0211BE900000E0541F70E4
:1010870030900003E0FE7F00900002E0FD7C00420C
:1010970007EC4206BF0114BE00119001A1E0FF302A
:1010A700E5030211BE751CFF0211BE751CFF02117C
:1010B700BE900000E0FF53071F7E00BF0205BE0081
:1010C700028003021191900003E0FE7F009000026E
:1010D700E0FD7C004207EC4206EF4E600302118CF4
:1010E700900005E0FE7F00900004E0FD7C004207D1
:1010F700EC4206BF0106BE000302117FBF0205BE18
:1011070000028060BF0305BE00028044BF0405BE25
:1011170000028028BF8105BE00028052BF8205BE43
:1011270000028036BF8305BE0002801ABF8451BE0D
:10113700004E74BF55DE4403F5DE807B747F55DEB9
:10114700440CF5DE807174BF55D64403F5D680672D
:10115700747F55D6440CF5D6805D74BF55D44403CF
:10116700F5D48053747F55D4440CF5D4804974BFAB
:1011770055D24403F5D2803F747F55D2440CF5D243
:10118700751CFF8032751CFF802D751CFF80289011
:101197000000E4F0900001F0AE12AF13C3EE94022A
:1011A700EF94004005751C02800D85121C800875A0
:1011B7001CFF8003751CFF74FFB51C077514FF75B2
:1011C700DCCF22E51C24F74007851CDD75DCC02237
:1011D70075DD0075DCC0227405B51402806E7406D7
:1011E700B514028003021261AE12AF13C3EE940866
:1011F700EF9400920240067C087D008004AC12AD9B
:10120700138C687D00C3ED956850208D027B00ED3F
:101217002516F8E43517F9AC18888289838CF01203
:1012270022D6F88A828B83F00D80DAAC687D00EED7
:10123700C39CFEEF9DFF8E128F13E5682516F516EA
:10124700E43517F5178568DD63DC4022E5E3548054
:10125700FFE5124FF5E375DC022275DD0075DC0250
:10126700227420B5140D30DE101208FC75DD0085E0
:10127700DCDC2275DD0043DC022275D30074FC55EB
:10128700D24402F5D22220D903021338E5D9540FEC
:10129700FFADD95305307E00BD0005BE0002801C9E
:1012A700BD1005BE00028036BD2005BE000280438A
:1012B700BD3006BE000302131E021336EF24FB5097
:1012C70003021336EF2F9012D173800880618009D3
:1012D700805D805B1212688056120B798051EF2473
:1012E700FB404CEF2F9012F0738044804280408087
:1012F7003E803CEF24FB4037EF2F901305738008A7
:10130700800B800E802980271211DE802212128125
:10131700801D120B688018EF24FB4013EF2F9013EA
:10132700297380088009800780058003120B97C204
:10133700D930D81575DC0275D21275D41275E30051
:10134700C2DAC2D9C2D81208F210DA0122E5DA20CD
:10135700E20375D8FF2275E20053E27F43E2297565
:10136700E30053E2BF53D1FB75D18043D101224340
:10137700E10443E10243E10143D81FD2EAD2AF229D
:101387007E0A7F008EEE8FEF7E147F008EE48FE55E
:1013970075EB0C75D21275D4127E007F008EEC8F20
:0813A700ED75EA4075DC02223D
:1013AF00C021C0E0C0F0C082C083C007C006C00526
:1013BF00C004C003C002C001C000C0D075D000126D
:1013CF00128DD0D0D000D001D002D003D004D005E0
:1013DF00D006D007D083D082D0F0D0E0D02132C059
:1013EF0021C0E0C0F0C082C083C007C006C005C0E6
:1013FF0004C003C002C001C000C0D075D000309837
:10140F0005121E01C298309905121E37C299D0D00D
:10141F00D000D001D002D003D004D005D006D00721
:10142F00D083D082D0F0D0E0D02132C021C0E0C034
:10143F00F0C082C083C007C006C005C004C003C08F
:10144F0002C001C000C0D075D00030C005122328E3
:10145F00C2C030C10512235EC2C1D0D0D000D001AE
:10146F00D002D003D004D005D006D007D083D082CD
:10147F00D0F0D0E0D02132C021C0E0C0F0C082C097
:10148F0083C007C006C005C004C003C002C001C0AE
:10149F0000C0D075D000900253E0FEA3E0FFC0075C
:1014AF00C0068E828F83120069D006D007D0D0D0AD
:1014BF0000D001D002D003D004D005D006D007D081
:1014CF0083D082D0F0D0E0D02132C021C0E0C0F074
:1014DF00C082C083C007C006C005C004C003C002DD
:1014EF00C001C000C0D075D000900255E0FEA3E04F
:1014FF00FFC007C0068E828F83120069D006D00707
:10150F00D0D0D000D001D002D003D004D005D00667
:10151F00D007D083D082D0F0D0E0D02132C021C00C
:10152F00E0C0F0C082C083C007C006C005C004C0C1
:10153F0003C002C001C000C0D075D00090024DE0C2
:10154F00FEA3E04E600E90024DE0F8A3E0F5838815
:10155F0082120069D0D0D000D001D002D003D004C5
:10156F00D005D006D007D083D082D0F0D0E0D021E4
:10157F0032121C0F1201091201C180FB7582002269
:10158F00E582FF90242193FEEF9023F993FF7001E2
:10159F00229000FCE0FD701BBF0209EEF4FC52929A
:1015AF00EC529322BF0402800122EEF4FC5296EC1F
:1015BF00529722BD0214BF0207EE4292EE429322CF
:1015CF00BF0439EE4296EE429722BD0116BF0208C4
:1015DF00EEF45292EE429322BF0421EEF45296EEB5
:1015EF00429722BD0316BF0208EE4292EEF45293C9
:1015FF0022BF0408EE4296EEF4FE529722AF82BF4E
:10160F000102800FBF02028013BF03028017BF04C5
:10161F00358023E5C620E22E539DFB22E5C620E34D
:10162F0025539DF722AEC65306047F00BE0117BF98
:10163F000014539DFB22AEC65306087F00BE010661
:10164F00BF0003539DF722E582FF9023D193FEEF56
:10165F0090242193FDEF9023F993FF7003F58222DD
:10166F00EE600D8E82C007C00512160CD005D00794
:10167F007E00BF0202800ABF03028009BF040C80F4
:10168F0008AE908006AEA08002AEB0ED5E6004752D
:10169F0082012275820022E582FF9023D193FEEF13
:1016AF0090242193FDEF9023F993FFEE600D8E822E
:1016BF00C007C00512160CD005D007A2AFE433FE49
:1016CF00C2AFBF0202800ABF03028017BF04368079
:1016DF00249000FDE07007EDF4FF52908027ED425B
:1016EF009080229000FDE07007EDF4FF52A080156E
:1016FF00ED42A080109000FDE07007EDF4FF52B0B6
:0B170F008003ED42B0EE6002D2AF227A
:10171B00AE82AF839000FEE0FBA3E0FCA3E0FD7A7A
:10172B0000900101E0F9890019E8603F8B828C83FE
:10173B008DF01222D6F8A3AB82AC83C007C006C0D3
:10174B0005C004C003C002C0011217598007C006B0
:10175B00C007888222A882D001D002D003D004D047
:10176B0005D006D007E860030A80BB8A8222AE82CE
:10177B00AF83900102E0FBA3E0FCA3E0FD9001022C
:10178B00E0F5F0A3E045F07003F582227A008B823E
:10179B008C838DF01222D6F9A3AB82AC83E9F8606F
:1017AB002CC007C006C005C004C003C0021217BD81
:1017BB008007C006C007888222A982D002D003D03E
:1017CB0004D005D006D007E960030A80C18A8222C3
:1017DB00AE82AF83900105E0FAA3E0FBA3E0FCA38C
:1017EB00E0FD90010DEAF0EBA3F0ECA3F0EDA3F01C
:1017FB00900111740AF08E828F8302186CAE82AF47
:10180B0083900109E0FAA3E0FBA3E0FCA3E0FD90C9
:10181B000133EAF0EBA3F0ECA3F0EDA3F09001376A
:10182B00740AF08E828F83021951AE82AF83C00788
:10183B00C0061218428008C006C00775820D22AD83
:10184B0082D006D007C007C0051218598008C00601
:10185B00C00775820A22AE82D005D007EE2DF58225
:10186B002285824A85834B900132E4F0900111E08E
:10187B00FDBD02005006900111740AF0900111E0B9
:10188B00F54C7B327C0190010DE0F54DA3E0F54E5C
:10189B00A3E0F54FA3E0F550854C517552007553FD
:1018AB000075540085516885526985536A85546B60
:1018BB00854D82854E83854FF0E550C004C00312E1
:1018CB001F74A88285516885526985536A85546B4C
:1018DB00854D82854E83854FF0E550C0001220DF89
:1018EB00AA82AD83AEF0FFD000D003D00490010DDF
:1018FB00EAF0EDA3F0EEA3F0EFA3F01BBBFF011C8E
:10190B008B068C07B80A005008880574302DFD80B3
:10191B0004743728FD8E828F83EDF090010DE0F576
:10192B00F0A3E042F0A3E042F0A3E045F060030235
:10193B001891900102EBF0ECA3F0E4A3F0854A823E
:10194B00854B83021779858255858356900137E045
:10195B00FD7019900133E0F9A3E0FAA3E0FBA3E0DB
:10196B00FC02196FC055C05689822222BD0A028023
:10197B0003021A1C900133E0F9A3E0FAA3E0FBA3E6
:10198B00E0FC30E76FC004C003C002C00112199D18
:10199B008008C055C05675822D22A882D001D00276
:1019AB00D003D0048857900133C3E499F0E49AA391
:1019BB00F0E49BA3F0E49CA3F0900133E0F558A373
:1019CB00E0F559A3E0F55AA3E0F55B90010DE5585E
:1019DB00F0E559A3F0E55AA3F0E55BA3F0900111F4
:1019EB00740AF085558285568312186CAF82E557C1
:1019FB002FF5822290010DE9F0EAA3F0EBA3F0ECB6
:101A0B00A3F0900111740AF0855582855683021854
:101A1B006C900133E0FBA3E0FCA3E0FEA3E0FF909E
:101A2B00010DEBF0ECA3F0EEA3F0EFA3F09001119E
:0B1A3B00EDF085558285568302186C83
:101A4700AC82AD83AE69AF6ABE0004EF600C1F0FB6
:0F1A5700E568121DE6A3DEFADFF88C828D83228C
:101A6600C0D075D00808B8000D09B900090ABA0037
:101A7600050BBB00010CD0D032A2AFC2AFA808A99B
:101A860009AA0AAB0BAC8A8588F092AF30F51274BE
:101A9600012C600D08B8000909B900050ABA000151
:101AA6000BC3EC9406FCECC313FC75F07DE8A4F8BC
:101AB600ADF075F07DE9A42DF9E435F0FD75F07D06
:101AC600EAA42DFAE435F0FD75F07DEBA42DFB7D3F
:101AD60000EC28F582E93DF583EA3DF5F0EB3D2281
:101AE600A2AFC2AFA808A909AA0AAB0BAC0C92AF69
:101AF60075F020E8A4A8F075F020E9A428F582A8DE
:101B0600F075F020EAA428F583A8F075F020EBA480
:101B160028F9A8F075F020ECA42889F02285825CCB
:101B260085835D85F05EF55F121A7F858260858309
:101B36006185F062F563E55C455D455E455F700174
:101B460022A85CA95DAA5EAB5F8560648561658538
:101B56006266856367E8494A4B60DBC003C002C022
:101B660001C000121A7FAC82AD83AEF0FFD000D068
:101B760001D002D003ECC39564FCED9565FDEE95AE
:101B860066FEEF9567FFC3EC94E8ED9403EE9400D0
:101B9600EF940040A118B8FF0919B9FF051ABAFF5A
:101BA600011B885C895D8A5E8B5F74E82564F56439
:101BB60074033565F565E43566F566E43567F567FE
:101BC6008564608565618566628567638087AE82A8
:101BD600AF83C374019EE49F40022200C374029E39
:101BE600FE74009FFF00BE0005BF00020022000039
:101BF6000000000000000000000000000000000ED1
:101C0600BE00EB0FBF00ED002275A15575A1AA74A9
:101C1600F855B94406F5B975A100901388121BD47E
:101C2600759E04759D0074F055894402F58953C963
:0D1C3600EF758C06C28DD2A9D28CD2AF22E0
:101C4400900138E0F5822285826885836985F06A8F
:101C5400F56B901C0075F04E740E1220DFAC82AD53
:101C640083AEF0FFEDC4CCC4540F6CCC540FCC6CD9
:101C7400CCFDEEC454F04DFDEFC4CEC4540F6ECE73
:101C8400540FCE6ECEFF8C028D038A828B837568CF
:101C94000A756900C007C006C005C004121E7DAAEB
:101CA40082D004D005D006D00775680AE4F569F53A
:101CB4006AF56B8C828D838EF0EFC0021220DFAC4C
:101CC40082AD83AEF0FFD002BA0500400D0CBC001B
:101CD400090DBD00050EBE00010FC29FD29EC29D1C
:101CE400C2CDC2CC438780740F55894420F5894303
:101CF400C9A0C3E49CF58DD28EC299D29CD2AC907B
:101D040001387401F022AF82A2AFE433FEC2AF9077
:101D14000251E0FD900252E0FCEDB5041020030DE9
:101D2400D2038F99EE6002D2AF75820122900251E4
:101D3400E0FD0D53050F7B007C00900252E0FAEDAC
:101D4400B50235EE6002D2AF0BBB00010C9000056A
:101D5400C007C006C005C004C003121BD4D003D002
:101D640004D005D006D0078B018C02C3E99420EA85
:101D7400944E40C675820022900251E02449F582B7
:101D8400E43401F583EFF0900251EDF0EE6002D2FD
:101D9400AF758201222003FD2290024FE02410FF40
:101DA400900250E0FEEFC39EFF740F5FF582229015
:101DB400024FE02410FF900250E0FEEFC39E540F48
:101DC400601C900250E02439F582E43401F583E08C
:101DD400FF900250E0FE0E740F5EF08F8222758237
:101DE400002220F71130F6138883A88220F509F623
:0D1DF400A8837583002280FEF280F5F022A6
:101E010090024FE0FF7E008F828E83A37568108E53
:101E1100691222F2AE82900250E0FFEEB507012274
:101E210090024FE02439F582E43401F583E599F01D
:101E310090024FEEF022300340900251E0FF9002F9
:101E410052E0FEEFB50605A203C20322900252E062
:101E51002449F582E43401F583E0F599900252E0DA
:101E6100FF7E008F828E83A37568108E691222F225
:0A1E7100AE82AF83900252EEF02221
:011E7B003234
:101E7D00E568456960467A01E56825E0F568E5693C
:101E8D00334012F569E5829568E583956940030A4B
:101E9D0080E6C3E56913F569E56813F568C3E58266
:101EAD009568F5F0E58395694005F58385F082C366
:101EBD00E56913F569E56813F568DAE122AAF0FB27
:101ECD00E5828568F0A4FCADF0E5838568F0A42D6E
:101EDD00FDE435F0FEE5828569F0A42DFDE5F03ECB
:101EED00FEE433FFEA8568F0A42EFEE5F03FFFE542
:101EFD00838569F0A42EFEE5F03FFFE582856AF04B
:101F0D00A42EFEE5F03FFFEB8568F0A42FFFEA85D8
:101F1D0069F0A42FFFE583856AF0A42FFFE5828584
:0C1F2D006BF0A42F8EF08D838C8222328A
:091F3A00ABF0A2AFE433FEC2AF2C
:101F4400E0A3D2913300500A00000000000000001A
:101F54000000C291400A00000000000000000000E0
:101F6400530207DADDDBD900C291EE6002D2AF2260
:101F7400F9E5684569456A456B60777800C308E50B
:101F84006B20E73BE56825E0F568E56933F569E52D
:101F94006A33F56AE56B33F56BE5829568E58395FD
:101FA40069E5F0956AE9956B50D4C3E56B13F56B5D
:101FB400E56A13F56AE56913F569E56813F568E5FB
:101FC400829568FCE5839569FDE5F0956AFEE995DF
:101FD4006B4007F98EF08D838C82C3E56B13F56B30
:101FE400E56A13F56AE56913F569E56813F568D8D8
:0C1FF400CEE922ABF0A2AFE433FEC2AF96
:10200100E0A3D2B03300500A00000000000000003D
:102011000000C2B0400A0000000000000000000003
:10202100530207DADDDBD900C2B0EE6002D2AF2283
:09203100ABF0A2AFE433FEC2AF34
:10203B00E0A3D2B13300500A000000000000000002
:10204B000000C2B1400A00000000000000000000C8
:10205B00530207DADDDBD900C2B1EE6002D2AF2248
:09206B00ABF0A2AFE433FEC2AFFA
:10207500E0A3D2B23300500A0000000000000000C7
:102085000000C2B2400A000000000000000000008D
:10209500530207DADDDBD900C2B2EE6002D2AF220D
:0920A500ABF0A2AFE433FEC2AFC0
:1020AF00E0A3D2943300500A0000000000000000AB
:1020BF000000C294400A0000000000000000000071
:1020CF00530207DADDDBD900C294EE6002D2AF22F1
:1020DF00FB7A20E4FCFDFEFFE5822582F582E58395
:1020EF0033F583E5F033F5F0EB33FB4017DAE98096
:1020FF0042E5822582F582E58333F583E5F033F5FA
:10210F00F0EB33FBEC33FCED33FDEE33FEEF33FF3F
:10211F00EC9568ED9569EE956AEF956B4013EC952C
:10212F0068FCED9569FDEE956AFEEF956BFF4382B6
:0E213F0001DABEEB22ABF0A2AFE433FEC2AF7A
:10214E00E0A3D2B33300500A0000000000000000EC
:10215E000000C2B3400A00000000000000000000B2
:10216E00530207DADDDBD900C2B3EE6002D2AF2232
:09217E00ABF0A2AFE433FEC2AFE6
:10218800E0A3D2953300500A0000000000000000D0
:102198000000C295400A0000000000000000000096
:1021A800530207DADDDBD900C295EE6002D2AF2216
:0921B800ABF0A2AFE433FEC2AFAC
:1021C200E0A3D2B43300500A000000000000000077
:1021D2000000C2B4400A000000000000000000003D
:1021E200530207DADDDBD900C2B4EE6002D2AF22BD
:0921F200ABF0A2AFE433FEC2AF72
:1021FC00E0A3D2963300500A00000000000000005B
:10220C000000C296400A0000000000000000000020
:10221C00530207DADDDBD900C296EE6002D2AF22A0
:09222C00ABF0A2AFE433FEC2AF37
:10223600E0A3D2973300500A00000000000000001F
:102246000000C297400A00000000000000000000E5
:10225600530207DADDDBD900C297EE6002D2AF2265
:1022660022AF82BF02005036EF75F002A42453F568
:1022760082740235F0F583E568F0E569A3F0BF00E6
:10228600028005BF0118800B900159E024FF928857
:10229600D2A822900159E0FF24FF928AD2AA22AF47
:1022A60082BF02005028BF00028005BF01088004DB
:1022B600C2A88002C2AAEF75F002A42453FE7402DB
:0F22C60035F0FF8E828F837466F07422A3F022AE
:1022D60020F71430F6148883A88220F507E6A88331
:1022E60075830022E280F7E49322E022C2D5E583DB
:1022F60030E70DD2D5E4C39582F582E49583F58364
:10230600E56930E70BE4C39568F568E49569F56916
:10231600121E7D30D50BE4C39582F582E49583F5D4
:02232600832210
:10232800900257E0FF7E008F828E83A37568108E1F
:10233800691222F2AE82900258E0FFEEB507012240
:10234800900257E0245AF582E43401F583E5C1F0A0
:10235800900257EEF022300440900259E0FF9002BC
:102368005AE0FEEFB50605A204C2042290025AE024
:10237800246AF582E43401F583E0F5C190025AE05D
:10238800FF7E008F828E83A37568108E691222F2F9
:0A239800AE82AF8390025AEEF022ED
:1023A20061626E6469727370643135344164614193
:1023B2006D62696E6F2046616E487562312E302EF5
:0F23C200344146523267E803000041626E0A0060
:1023D10000000000000000000000000000000001FB
:1023E10000000000000000000000000000000304E5
:1023F10000000200000000000101010101010101D2
:1024010000000202020202020202000003030303AF
:10241100030303030000040404040404040400008F
:10242100010204081020408000000102040810206D
:1024310040800000010204081020408000000102D9
:102441000408102040800000FFFFFFFFFFFFFFFF97
:10245100FFFFFF00FFFF0102FFFFFFFFFFFFFFFF85
:10246100FFFFFFFFFFFFFFFF03FFFFFFFFFFFFFF77
:1024710000E100000000080000000000120110014E
:10248100EF020108091250C5010101020301120006
:1024910009024B000201008064080B0002020201E4
:1024A10004090400000102020104052400100105D1
:1024B100240100000424020205240600010705810D
:1024C1000308004009040100020A00000407050294
:1024D10002400000070582024000004B000403098E
:1024E1000404001C0341006D00620069006E006F6E
:1024F100002000460061006E004800750062001C6B
:10250100001603430044004300200053006500729D
:1025110000690061006C0016000E0341006D00624D
:092521000069006E006F000E005D
:10252A000C0330003100320033003400350036002D
:0A253A00370038003900410042006C
:02254400000095
:042546000000000091
:04254A00662266227D
:04254E000000000089
:00000001FF
